:020000040800F2
:100000006021002099010008350F0008890D0008C3
:10001000330F0008DB070008112300080000000070
:10002000000000000000000000000000AB1E0008FF
:100030002D08000800000000AD180008C91F0008C6
:10004000B3010008B3010008B3010008991B0008C0
:10005000B3010008B3010008B3010008B3010008B0
:10006000B3010008B3010008B3010008B3010008A0
:10007000B3010008B3010008B3010008B301000890
:10008000B3010008B3010008B3010008B301000880
:10009000B3010008B3010008B3010008B301000870
:1000A000B3010008B3010008B301000829200008CB
:1000B000B30100085D200008B3010008B301000887
:1000C000B3010008B3010008B3010008B301000840
:1000D000B3010008D1200008B3010008B3010008F3
:1000E000B3010008B3010008B301000800F002F8F2
:1000F00000F043F80AA090E8000C82448344AAF17F
:100100000107DA4501D100F038F8AFF2090EBAE87C
:100110000F0013F0010F18BFFB1A43F0010318473B
:10012000A42F0000C42F0000103A24BF78C878C163
:10013000FAD8520724BF30C830C144BF04680C60ED
:10014000704700000023002400250026103A28BF35
:1001500078C1FBD8520728BF30C148BF0B60704739
:10016000642900F07580002070471FB59DE80300EA
:1001700000F0B6F91FBD10B510BD00F0BAFA114677
:10018000FFF7F3FF02F0DAF800F0D8FA03B4FFF754
:10019000F2FF03BC02F0C4F8094880470948004751
:1001A000FEE7FEE7FEE7FEE7FEE7FEE7FEE7FEE727
:1001B000FEE7FEE704480549054A064B7047000084
:1001C000D91F0008ED000008600100206021002018
:1001D0006011002060110020704770B5064600F0E5
:1001E00063F9056806F10B0020F00704B4429CBFD8
:1001F000002070BD2B466A68BAB11068A04210D3C7
:1002000004F1080188423CBF5068586007D3516828
:10021000101941601168091B016058601460101DBD
:1002200070BD13465268002AE7D12146284600F0E7
:1002300043F90028DED170BD0FB4044910B503AAFC
:10024000029800F01BFA10BC5DF814FB3C00002083
:100250002DE9F0410646002410687529314616A59F
:1002600010D0AFF30080002802DA404213A507E067
:1002700031688A0701D512A502E0490704D511A506
:10028000012401E0AFF3008000210A2206F12407D7
:1002900009E0B0FBF2FCB0FBF2F302FB1C003030D3
:1002A00078541846491C0028F3D123462A46304684
:1002B000BDE8F04100F071B9000000002D00000021
:1002C0002B000000200000002DE9F05F8946044665
:1002D0004FF0000ADFF874B1FB44C0F820A02046BC
:1002E000E1688847002874D0252806D0D4E9012188
:1002F0009047206A401C2062F1E700265F462046B6
:10030000E16888472028054607DB312D05D278199A
:1003100010F8200C08B10643F1E7B00701D526F02C
:100320000406C4F81CA00027C4F818A02A2D09D080
:10033000284601F0EEFF38B304EB8708303DC8F8DB
:10034000185019E059F8041B204604EB870291610C
:10035000E1688847012F054618D1E069002820DAB6
:1003600026F020061DE0D8F8180000EB800005EB11
:1003700040003038C8F818002046E1688847054634
:1003800001F0C7FF0028EED1012F0AD02E2D08D191
:100390002046E16888477F1C0546022F46F020066C
:1003A000C4DBA069002803DA404246F00106A061E0
:1003B000F00701D026F010066C2D0BD0682D09D067
:1003C0004C2D39D06A2D35D0742D35D07A2D33D0BF
:1003D00016E038E0E1682F4620468847B8420546D7
:1003E00009D16C2F26D04FF48060E1680643204687
:1003F0008847054604E06C2F1AD04FF480700643FE
:100400000DB3A5F14100192802D8203546F4006645
:100410004A462946204626604E46FFF7A1FE80B197
:1004200001280BD0F61D26F0070000F1080956E759
:100430004020E4E78020D8E70020D6E706F1040951
:100440004DE7284652E7206ABDE8F09F082D0000DE
:100450004FF0000200B5134694469646203922BF5D
:10046000A0E80C50A0E80C50B1F12001BFF4F7AFA8
:10047000090728BFA0E80C5048BF0CC05DF804EB8A
:10048000890028BF40F8042B08BF704748BF20F8F8
:10049000022B11F0804F18BF00F8012B70477047F6
:1004A00070477047704700000048704708010020FF
:1004B000704770477047704738B504460A460020B9
:1004C0006946AFF30080002808BF38BD0246009996
:1004D000204600F0E9F8012038BD012000F002B903
:1004E000F8B5AFF30080054600200C46102000BF91
:1004F0000646A819A0420DD9324669460020AFF33E
:100500000080070008BF00F0EDF80098A04218BF77
:100510000546C419FFF7C8FF05600746F01D20F027
:1005200007004619284600F00AF8B44208BFF8BD93
:10053000A21B31463868BDE8F84000F0B5B800218C
:100540000160C0E9011070471020704770B5044683
:10055000051FFFF7A9FF0068002C14BF446870BD99
:10056000002C18BFAC423CBF20466468F8D3016839
:100570000A18AA4218BF456003D12A6805461144EB
:10058000016028684119A1421CBF6C6070BD6168A0
:10059000696021680844286070BD2DE9F0470D4668
:1005A00099469246044600F124080168880604D55D
:1005B000E06921F01001216000E00120A84201DD86
:1005C000471B00E00027A1697A1902EB0900081A0D
:1005D000A0612078C00602D42046AFF30080002638
:1005E00008E0D4E901211AF806009047206A401C6F
:1005F000761C20624E45F4DB2078C0060AD52046E2
:10060000AFF3008006E0D4E9012130209047206A52
:10061000401C2062381EA7F10107F4DC07E0D4E992
:10062000012118F805009047206A401C2062281E0E
:10063000A5F10105F3DC2046AFF300802078000629
:1006400002D50220BDE8F0870120FBE701694A1CC2
:1006500002610878704700B58FB0CDE90131002103
:10066000059105497944CDE9031011466846FFF725
:100670002BFE0FB000BD0000E5FFFFFF074B70B57C
:100680000D467B44FFF7E7FF0446284600F026F8B6
:1006900010B14FF0FF3070BD204670BD9F1C0000B0
:1006A0000048704700010020034640688C4600283F
:1006B00018BF88423CBF03464068F8D31868184406
:1006C000884207D00CF1030020F00700001D411AFA
:1006D000521A0146081D0A60FFF738BF007B00F080
:1006E0008000704710B500F037F8BDE8104000F00A
:1006F0002EB87546FFF7D4FFAE460500694653464F
:1007000020F00700854618B020B5FFF753FDBDE87F
:1007100020404FF000064FF000074FF000084FF068
:10072000000B21F00701AC46ACE8C009ACE8C009F9
:10073000ACE8C009ACE8C0098D46704710B5044666
:10074000AFF300802046BDE81040FFF71FBD002832
:1007500001D001F0E5BD704710B5012805D000219A
:1007600003A000F021F8012010BD09A1F8E7000066
:1007700053494752544D454D3A204F7574206F668A
:100780002068656170206D656D6F727900000000F2
:100790003A2048656170206D656D6F727920636FD6
:1007A000727275707465640070B505460C460A2057
:1007B00000E06D1C01F0B5FD35B128780028F8D1B6
:1007C00002E0641C01F0ADFD14B120780028F8D1DE
:1007D000BDE870400A2001F0A4BDFEE730B56424F6
:1007E000B0FBF4F3B0FBF4F5DBB204FB1500132B04
:1007F00001D96430C0B200EB90040723B4FBF3F5D9
:1008000003FB1544084D22440D44800715F8015C94
:100810002A4492B203D1032901D2521E92B2B2FBF2
:10082000F3F003FB102030BDBC23000870474FF4E9
:100830007A714843AFF3008070B54FF0E024002296
:1008400065690949A36909784843A1699942FCD0BF
:1008500002D2A3EB010302E0A5EB010633441A44E4
:100860000B468242F1D370BD400000202DE9F041DB
:100870000024FA2710263B467A222146204600F023
:100880002BF92146002000F011F9242000F0FEF899
:100890000025FF2000F0EAF86D1CADB2B542F8D398
:1008A000641CA4B2BC42ECD3BDE8F0812DE9F04752
:1008B00081464FF0FA080021102743467A22084665
:1008C00000F00AF900242146002000F0EFF824206F
:1008D00000F0DCF8002504FB07F600BF09EB05007B
:1008E000305C00F0C3F86D1CADB2BD42F6D3641CA1
:1008F000A4B24445E7D3BDE8F04700F0C5B9000015
:1009000038B50121042000F0F7FF1620ADF80000F3
:1009100010208DF803000F4D03248DF80240694626
:10092000284600F0D9F90820ADF8000004208DF821
:1009300003008DF802406946284600F0CDF90648CC
:100940000121C0F884110021C0F88811C0F88C1171
:1009500038BD0000000801400000214270B5054686
:10096000002400F07BF8FFF7CBFF00F05FF80120D8
:1009700000F08CF8F92000F079F8002000F076F80B
:10098000002000F073F80C2000F080F8D72000F071
:100990006DF8D62000F06AF89D2000F067F82C2052
:1009A00000F074F8A82000F061F83A2000F06EF82A
:1009B0001A2000F05BF83B2000F068F8082000F0F7
:1009C00055F83C2000F062F8032000F04FF81120A9
:1009D00000F05CF8032000F049F8322000F056F8EF
:1009E00055B1012D07D1094D285D00F03FF8641C79
:1009F000E4B21E2CF8D370BD044D1E3D285D00F0FE
:100A000035F8641CE4B21E2CF8D370BDE623000850
:100A100010B5054C02E00A20FFF709FFD4F80C01DD
:100A20000128F8D010BD00000000214270B50A4C2A
:100A30000125C4F88451C82004F5C274FFF7F7FEFD
:100A4000002020600A20FFF7F2FE2560BDE870401C
:100A5000C820FFF7ECBE00000000214210B501F0F5
:100A600087F9BDE8104001F099B9000070B5064C57
:100A70000125C4F888510021C4F88C1104F5C47410
:100A800001F0BAF9656070BD0000214210B5064C56
:100A90000021C4F88811C4F88C1104F5C47401F065
:100AA000ABF90120606010BD0000214270B5054621
:100AB0000C464E20FFF7EAFFC5F3C700FFF7D6FF4D
:100AC0004F20FFF7E3FFE0B2FFF7D0FFC4F30720AA
:100AD000BDE87040FFF7CABF2DE9F04107461C464C
:100AE00016460D464420FFF7D1FFC7F3C700FFF7B6
:100AF000BDFFC6F3C700FFF7B9FF4520FFF7C6FFEC
:100B0000E8B2FFF7B3FFC5F30720FFF7AFFFE0B28E
:100B1000FFF7ACFFC4F30720BDE8F041FFF7A6BF25
:100B2000FEB50020FFF71AFFFFF7A0FE4FF4FA70A2
:100B3000FFF77DFE4FF47A60FFF74FFB07007DD093
:100B400048A0FFF779FBFF260023FA227A213846D6
:100B5000009600F011FEFF2000F02AFA3846FFF759
:100B6000A5FE0124234600220A210520009400F05E
:100B7000B3FC0223002219210520009400F0ACFCF4
:100B80000323002228210520009400F0A5FC042363
:100B9000002237210520009400F09EFC0025CDE9BD
:100BA00000543C2346220A211420029500F0A2FBA7
:100BB000CDE900543C2314220A214620029500F07E
:100BC00099FBCDE900543C2346220A2114200295CA
:100BD00000F024FDCDE900543C2387220A21552052
:100BE000029400F01BFDCDE900542D2237230F2184
:100BF0001046029400F07EFBCDE9005423234622E8
:100C000019461920029400F075FB002314222321B9
:100C10002D20CDE9004500F05FFA0094FF23142257
:100C200023216E20019400F057FACDE90056124BB3
:100C300012A20F21322000F061FD00E00CE0CDE9AE
:100C400000560D4B0E4A2821322000F0DBFB3846BF
:100C5000FFF72CFE0020FEBD0A48FFF7EDFA4FF02B
:100C6000FF30FEBD4D656D6F7279206170706C79DB
:100C7000204F4B0D0A000000540000204F4D47004C
:100C800015CD5B07F82F000810B52220FFF7FEFEF8
:100C9000C420FFF7EBFE2020FFF7F8FEFF20FFF750
:100CA000F5FEBDE81040FFF7B3BE000004490A6836
:100CB00022F010020A600A6802430A6070470000CE
:100CC00000200240034A116801F03801014311601D
:100CD0007047000000200240F0B5CA78002502F0FD
:100CE0000F03D20601D58A7813430A784FF00F0E0E
:100CF00012F0FF0F4FF001021CD004680F8802FAB7
:100D000005F63740B74211D14FEA850C0EFA0CF7C1
:100D100024EA070703FA0CF43C43CF78282F02D0CB
:100D2000482F02D002E0466100E006616D1C082DEC
:100D3000E4D304600C88FF2C1ED944685FF00006E1
:100D400006F1080702FA07F50F882F40AF420FD1CE
:100D50004FEA860C0EFA0CF7BC4303FA0CF73C433F
:100D6000CF78282F00D14561CF78482F00D1056179
:100D7000761C082EE4D34460F0BD02460020926841
:100D80000A4200D001207047FEE7000008B50121AB
:100D9000042000F0B1FD7F20ADF8000048208DF860
:100DA000030003208DF8020069460248FFF794FF14
:100DB00008BD0000000C014070B53F4C002001252B
:100DC00062780146052A75D2DFE802F0030C172E7F
:100DD0004B00394A08321154401CC0B20528FAD3DE
:100DE000657070BD00F08CFFA0700028F9D032480B
:100DF000001D01F067F9022031E000F081FFA178C9
:100E00008842EDD12C481E21001D01F04FF9012828
:100E1000E7D1A07800F064FD03206070BDE8704069
:100E20002548001D01F04EB900F06AFF50B300F0F4
:100E300067FFA178884225D11F484FF47A71001DC1
:100E400001F034F90128CCD11B48001D01F03AF91A
:100E5000A07840F08000A07000F042FD0420607097
:100E600070BD00F04DFF68B100F04AFFA17840F07E
:100E7000800088420BD000F043FFA17840F0C00012
:100E8000884204D00C48001D01F01CF9A8E70A486C
:100E9000C821001D01F00AF90128E1D10648001D12
:100EA00001F010F9A07840F04000A070BDE870405B
:100EB00000F016BD617070BD2C00002000F0F8BC81
:100EC00008B50121082000F017FD4FF48050ADF85F
:100ED000000010208DF8030003208DF80200694601
:100EE0000348FFF7F9FE03490120C1F8B00108BD2E
:100EF000000C0140008021420348D0F8B011C943E2
:100F0000C0F8B011704700000080214281070CD169
:100F10006421B0FBF1F201FB120141B94FF4C87139
:100F2000B0FBF1F201FB120008B100207047012074
:100F30007047FEE77047000070B50F23C478017852
:100F40000122F4B1144C2468457804F4E064C4F53B
:100F5000E064240AC4F10406E3408478B5401C40F0
:100F60002C4301F1E021230181F80034007800F0E6
:100F70001F018A404009800000F1E020C0F80021F4
:100F800070BD01F01F0082404809800000F1E020A0
:100F9000C0F8802170BD00000CED00E0024908435C
:100FA00002490860704700000000FA050CED00E0FF
:100FB00030B500210A4AC3B20DE0002006E000BFB0
:100FC00001FB04041568401C80B22B55548A8442EE
:100FD000F6D8491C89B2908A8842EED830BD00000C
:100FE000E80000202DE9F05F81462A481E46DDF822
:100FF0002CB0838888464B4502D3C188414504D232
:10100000BDE8F05F24A0FFF717B9B088410700D012
:10101000012101EBD000203AF18850434843316868
:101020004FF0800A0F1800252FE0002424E000BFB5
:10103000BBF1FF0F3A7804F007012AFA01F002EA47
:10104000000201D00AB908E082B108EB050081B2C4
:1010500009EB040080B20A9A06E008EB050081B2B1
:1010600009EB040080B25A4600F0A4FBE0434007BD
:1010700000D17F1C641CA4B2B088A042D8D83079BB
:10108000400700D07F1C6D1CADB2F088A842CCD8C0
:10109000BDE8F09FE800002044656275673A205083
:1010A00061696E745F447261774368617220496E52
:1010B0007075742065786365656473207468652055
:1010C0006E6F726D616C20646973706C61792072EF
:1010D000616E67650D0A00002DE9FF4F8046834869
:1010E00085B00F4684881399444502D3C088B8421E
:1010F00005D809B07E48BDE8F04FFFF79DB8032042
:101100000024A0EB420015B20FFA80FA01297AD030
:10111000E9E0264661E000BF4FF0010908EB04005A
:1011200007EB060B02901FFA8BF1CDF8009080B20E
:101130004B46089A00F0D0F9A8EB040004901FFA7F
:101140008BF1CDF8009080B20123089A00F0C4F929
:101150003819CDE9009081B2A8EB060B1FFA8BF08D
:101160000123089A00F0B8F9381B039081B2CDF83A
:1011700000901FFA8BF00123089A00F0ADF9049853
:10118000A7EB060B1FFA8BF1CDF8009080B201237C
:10119000089A00F0A1F902981FFA8BF1CDF800909F
:1011A00080B20123089A00F097F9039808EB060B28
:1011B00081B2CDF800901FFA8BF00123089A00F05D
:1011C0008BF90198CDF8009081B21FFA8BF00123C2
:1011D000089A00F081F9761C36B2AE429CDDBAF175
:1011E000000F06DA0AEB8400801D0FFA80FA08E08F
:1011F00009E0611B0AEB81000A306D1E0FFA80FACC
:101200002DB2641C24B2AC4283DD09B0BDE8F08F7E
:1012100008EB0400012607EB050902901FFA89F18B
:10122000009680B2129B089A00F056F9A8EB0400D1
:1012300003901FFA89F1009680B2129B089A00F081
:101240004BF93819CDE9006081B2A8EB05091FFA06
:1012500089F0129B089A00F03FF9A7EB040B1FFAE4
:101260008BF11FFA89F00096129B089A00F034F96E
:101270000398A7EB05091FFA89F1009680B2129B2B
:10128000089A00F029F902981FFA89F1009680B2B5
:10129000129B089A00F020F908EB05091FFA8BF160
:1012A0001FFA89F00096129B089A00F015F9019830
:1012B000009681B21FFA89F0129B089A00F00CF98F
:1012C000BAF1000F05DA0AEB8400801D0FFA80FAEC
:1012D00007E0611B0AEB81000A306D1E0FFA80FAED
:1012E0002DB2641C24B2AC4292DD8EE7E8000020EF
:1012F000803000082DE9FE4F1646314A1D468346D0
:1013000093888A46834206D3D2888A4203D3B34263
:1013100001D3AA4204D2BDE8FE4F2AA0FEF78CBF3B
:10132000321A00D5821B91466A1A002A00DD4A1B38
:1013300090464FF0FF32B34501D2012000E0104645
:101340000290AA4500D2012209EB0804002701926D
:101350007F1C0E98FFB2012805D10320B7FBF0F1E6
:1013600000FB1170F8B10120DDE90C23009051461B
:10137000584600F0B1F800BFB8EB440F07DCB345A6
:101380001BD0029944440BEB01001FFA80FBB9EB20
:10139000440FDDDBAA4510D001994C440AEB010053
:1013A0001FFA80FAD4E701200090FF2251465846E8
:1013B0000D9B00F091F80027DEE7BDE8FE8F0000EE
:1013C000E800002044656275673A205061696E74D8
:1013D0005F447261774C696E6520496E7075742048
:1013E0006578636565647320746865206E6F726DDF
:1013F000616C20646973706C61792072616E6765DD
:101400000D0A00002DE9FF4FADF5037D8846DDE9AB
:1014100090AB814600244FF4807715462646394626
:1014200042A8FFF715F8394602A8FFF711F8194846
:1014300042AA83884B4503D3C38802A8434512D2EE
:1014400015A0FEF7F9FE0DF5077DBDE8F08F00BF92
:1014500095FBF1F301FB135395FBF1F53033035585
:10146000641C24B200E00A21002DF1D11146002CA9
:1014700008DD031913F8013C8B55761C641E36B247
:1014800024B2F4E7CDE900BA41464846869B00F015
:1014900035F9D8E7E800002044656275673A2050C6
:1014A00061696E745F4469734E756D20496E707525
:1014B00074206578636565647320746865206E6F59
:1014C000726D616C20646973706C61792072616EF9
:1014D00067650D0A000000002DE9F05F2B4D934673
:1014E0008146AA880A981C4688464A4502D3EA885B
:1014F00042450ED226A0FEF79FFEAA88494634A098
:10150000FEF79AFEEA884146BDE8F05F39A0FEF793
:1015100093BE012801D0002634E00025681E00EBB0
:10152000440718E009EB05000026A0EB040A0EE0D2
:10153000BAF1000F0DD408EB0600001B09D481B2EC
:101540001FFA8AF05A4600F035F9761C36B2B742D7
:10155000EEDC6D1C2DB2AF42E4DCBDE8F09F00254F
:1015600009EB06077F1E09E008EB0500401E81B26B
:10157000B8B25A4600F01EF96D1C2DB2A542F3DB3D
:10158000761C36B2A642EADBE7E70000E80000205E
:1015900044656275673A205061696E745F44726198
:1015A00077506F696E7420496E707574206578632A
:1015B0006565647320746865206E6F726D616C2060
:1015C000646973706C61792072616E67650D0A00E1
:1015D00058706F696E74203D202564202C20506166
:1015E000696E742E5769647468203D20256420203C
:1015F0000D0A200059706F696E74203D202564200B
:101600002C205061696E742E486569676874203DAE
:1016100020256420200D0A20000000002DE9FE4F47
:101620008246294891460C46DDE90D5281880C9E80
:101630001F46514506D3C088A04203D3494501D374
:10164000B84204D2BDE8FE4F20A0FEF7F5BD002051
:10165000804662B90FE0CDE9006523464A46194647
:101660005046CDF80880FFF745FE641CA4B2BC428A
:10167000F1D3BDE8FE8FCDE9006523464A46194601
:101680005046CDF80880FFF735FECDE9006552469B
:101690003B4621461046CDF80880FFF72BFECDE9EA
:1016A00000654A46234639461046CDF80880FFF7C4
:1016B00021FECDE900653B46524619464846CDF825
:1016C0000880FFF717FED4E7E80000204465627544
:1016D000673A20496E707574206578636565647338
:1016E00020746865206E6F726D616C206469737020
:1016F0006C61792072616E67650D0A002DE9FC5FEF
:1017000080461B4889460D4681884446DDF834B042
:101710001E461746A14203D3C1888246A94222D25F
:10172000BDE8FC5F1348FEF787BDB088BAF8043007
:101730000119994203D9F188444629448DB2F188B0
:10174000BAF806002944814201D944464D460C9816
:101750003346CDE900B029462046FFF743FCB08868
:101760007F1C204484B23A78002ADED1BDE8FC9F79
:10177000E80000203C30000870B50D4C049E0025A8
:10178000206021816281A6810220E0824E074FEA1B
:10179000D10000D0401C6082A282E381258223B167
:1017A000B42B02D0A280E18070BDA180E28070BD28
:1017B000E8000020F0B4324CA388834234D3E3889D
:1017C0008B4231D32346E7891E895D89CFB15A2FD9
:1017D0001AD0B42F1CD0B7F5877F3FD10B46281AFB
:1017E000401E80B2218AD9B1012916D0022904D025
:1017F000032933D1F11A491E8BB2281A401E80B238
:101800000EE003460846EDE7711A491E8BB2E9E780
:10181000301A401E83B2681AE2E7F11A491E8BB2F1
:101820009E4201D3854203D2F0BC16A0FEF704BD50
:101830001349E58A4C8A0968022D11D0042D0DD177
:10184000444304EB930490079B075B0FC025DD40E6
:101850000A5D000EAA43D84010430855F0BC7047FB
:10186000444304EBD3048020002A0D5D03F00702FB
:1018700020FA02F001D02843EFE785430D55EDE74C
:10188000E800002044656275673A20457863656525
:1018900064696E6720646973706C617920626F752A
:1018A0006E6461726965730D0A0000007047000084
:1018B00030B50A4C0021237873B104F10802107886
:1018C00055186D785554491CC9B20429F8D3002124
:1018D00011715B1E237030BD002030BD2C00002034
:1018E000044A1178052904D202F108035854491C0E
:1018F000117070472C000020044A0029916901D022
:10190000014300E0814391617047000000100240F4
:1019100010B500F02FF84FF48034204600F0BCF8EA
:1019200000F002F9012823D14FF4E011204600F025
:10193000E7F8002000F0A6F8A01100F0C7F800209A
:1019400000F0CEF80220FFF7BDF91020FFF7AEF946
:10195000012000F0CFF8392000F074F80028FAD008
:10196000022000F0D7F800BF00F084F80828FBD16F
:1019700010BD00000C48016841F0010101604168A0
:101980000A4A114041600168094A1140016001683A
:1019900021F480210160416821F4FE0141604FF48F
:1019A0001F01816070470000001002400000FFF836
:1019B000FFFFF6FE30B51F494A6812F00C031E4ABD
:1019C00003D0042B01D0082B21D002604A680F23DA
:1019D0001A4C03EA1212A35C0268DA4042604B68B8
:1019E000072505EA1323E35C22FA03F383604B68BF
:1019F00005EAD323E35CDA40C2604968032303EAC3
:101A00009131231F595CB2FBF1F1016130BD4A688D
:101A10004B6802F470124FF0020413F4803F04EBA1
:101A2000924202D04B689B0301D5054B00E0024B6C
:101A30005A43CAE70010024000127A000800002052
:101A400000093D000246002053090949012B0BD033
:101A5000022B0BD0D1F8241002F01F020123934077
:101A60000B4200D0012070470968F5E7096AF3E7E7
:101A7000001002400248406800F00C00704700006F
:101A800000100240034A516821F0F0010143516007
:101A900070470000001002400B490A6822F48032AF
:101AA0000A600A6822F480220A60B0F5803F07D0FD
:101AB000B0F5802F03D1086840F4A020086070477B
:101AC000086840F48030F9E700100240034A51688A
:101AD00021F4E061014351607047000000100240B2
:101AE00003494A6822F4605242EAC00048607047E5
:101AF00000100240014908667047000000004242A1
:101B0000034A5368084323F47C131843506070471A
:101B100000100240034A516821F003010143516063
:101B2000704700000010024018B500204FF4A06478
:101B300000903120FFF786FF0099491C0091A142D7
:101B400001D00028F5D03120FFF77CFF002800D01D
:101B5000012018BD02490A8882430A8070470000AC
:101B600004280040034800880249091F098840EA08
:101B7000014070471C28004006490988C2B2114044
:101B8000044A121F1288024202D009B10120704794
:101B9000002070470428004010B50120FFF7ECFF3B
:101BA00020B100F011F80120FFF7D4FF0220FFF769
:101BB000E3FF10B10220FFF7CDFF0420FFF7CAFFBB
:101BC000BDE8104000F094B82DE9F05F444D4FF4AB
:101BD000616800226888434C4FF03C09404519D2A7
:101BE0002978012916D0401C80B24946B0FBF1F398
:101BF000DBB2688063703B2B00D96270B0FBF8F3F6
:101C000008FB1300B0FBF1F209FB1200A0700120E9
:101C1000BDE8F09F2A70FFF7A5FFDFF8CCA00746CC
:101C2000B0FBFAF3A888984230D0AB8040F2B2768D
:101C30004FF4B67B10E03046FFF768F940B106F18B
:101C40000106B3F5B77FB6B208D3A3F5B77303E0C7
:101C5000761CB6B2A3F26D135B45ECD8A6800026C5
:101C6000DFF888B00CE0A088FFF750F908B1012E2A
:101C700031D01BF80600984204D81B1A761CB6B265
:101C80001C2BF0D2761CA6715B1C2372B7FBFAF1F9
:101C90000AFB11714046B1FBF0F22270B1FBF0F289
:101CA00008FB12134A46B3FBF2F36370B1FBF0F387
:101CB00008FB1313B3FBF9F609FB1632A270B1FB54
:101CC000F8F208FB12106880227AA179A088FEF74A
:101CD00085FDE0719BE71D2BD4D31D3BCEE70000B3
:101CE0004C000020DC00002080510100B0230008DF
:101CF000024801888906FCD570470000042800408E
:101D000010B51A4C01212046FFF737F8F8B102212F
:101D10002046FFF732F8E0B104212046FFF72DF806
:101D2000C8B108212046FFF728F8B0B1102120469D
:101D3000FFF723F898B120212046FFF71EF880B165
:101D400040212046FFF719F868B1002010BD30206F
:101D500010BD312010BD322010BD332010BD342005
:101D600010BD352010BD362010BD0000000C014014
:101D700008B501210420FFF7BFFDA020ADF8000049
:101D800018208DF8030003208DF8020069460248F0
:101D9000FEF7A2FF08BD00000008014010B50121B8
:101DA00086B00803FFF7A8FD4FF48270ADF802007B
:101DB0000020ADF808004FF40071ADF80A1028219A
:101DC000ADF80C10ADF80400ADF80000ADF8060059
:101DD000ADF80E000A20074CADF810006946204609
:101DE00000F047F8FFF7C4FF0121204600F02CF86F
:101DF00006B010BD0030014070B506460024114DFC
:101E000003E0641CE4B2C82C0FD80221284600F07D
:101E100025F80028F5D03146284600F028F800249F
:101E200005E0641CE4B2C82C01D9002070BD01217A
:101E3000284600F013F80028F3D0284600F015F8E3
:101E4000C0B270BD003001400029018802D041F0CD
:101E5000400101E021F0400101807047024600206E
:101E600012890A4200D00120704780897047818121
:101E7000704730B502884C8802F441530A88CD88F7
:101E800022438C882C4322430C8922434C892243D1
:101E90008C892243CC8922431A430280828B22F40C
:101EA00000628283098A018230BD70470CB500212F
:101EB000264801910091026842F4803202604FF49A
:101EC000A063026802F400320092019A521C01924F
:101ED000009A12B9019A9A42F3D10268920333D55B
:101EE000012100911A490A6842F010020A600A684A
:101EF00022F003020A600A6842F002020A604168A6
:101F0000416041684160416841F4806141604168DD
:101F100021F47C114160416841F4E811416001689D
:101F200041F08071016001688901FCD5416821F0B0
:101F300003014160416841F0020141604168C1F321
:101F400081010229FAD10CBD00910CBD00100240A4
:101F500000200240124813490068B0FBF1F012491A
:101F6000C0B200EB40020870C2EBC0104FF6FF7227
:101F700002EAC0004880B0F1807F0FD24FF0E0212C
:101F8000401E4861094AF02082F8140D0020886143
:101F9000072008616FF0040000F00AB8FEE70000B7
:101FA0001800002000127A00400000200FE000E03E
:101FB0004FF0E0210428086903D020F004000861F4
:101FC000704740F00400FAE702484168491C41604C
:101FD00070470000400000200F4810B5016841F034
:101FE0000101016041680D4A1140416001680C4ADD
:101FF00011400160016821F480210160416821F4F1
:10200000FE0141604FF41F018160FFF74FFF05495A
:102010004FF00060086010BD001002400000FFF8A3
:10202000FFFFF6FE08ED00E010B50B4C0221204644
:1020300000F02BF800280DD00221204600F022F8F5
:102040000021204600F02FF82046BDE81040642112
:1020500000F027B810BD0000002C014010B5084C5E
:102060000121204600F011F8012807D10121204666
:1020700000F008F8BDE81040FEF73EBF10BD0000BC
:1020800000040040C9430182704702460020138AC1
:1020900092890B4202EA010202D0002A00D00120FC
:1020A000704781867047818470470000044A006849
:1020B0005268101A884201D30120704700207047EF
:1020C000400000200149496801607047400000203D
:1020D00070B5154C40F22551204600F087F80028D5
:1020E0000ED0204600F010F9C2B2104801880B044F
:1020F00006D44C044FF0000306D40A2A01D0038012
:1021000070BD41F400410DE00D2A09D0C1F30D046A
:10211000074D491C89B22A5501807F29EFD870BD2F
:1021200041F48041018070BD003801403A00002038
:102130005C00002070B5054686B0012144F2040021
:10214000FFF7DAFB4FF40070ADF8100018208DF89F
:1021500013001F4E03248DF8124004A93046FEF7E9
:10216000BBFD3015ADF8100004208DF813008DF87C
:10217000124004A93046FEF7AFFD25208DF814006B
:102180008DF815408DF8164001208DF8170005A830
:10219000FEF7D2FE0020ADF80400ADF80600ADF861
:1021A0000800ADF80C000C200A4CADF80A000095B0
:1021B0006946204600F052F8012240F2255120469F
:1021C00000F033F80121204600F006F806B070BD9B
:1021D00000080140003801400029818902D041F403
:1021E000005101E021F400518181704730B501F0C8
:1021F0001F0201240025C1F3421304FA02F2012B4D
:102200000FD0022B0FD0838A4FEA1121008813428E
:1022100004FA01F400EA040001D000B101252846C7
:1022200030BD8389F0E7038AEEE710B5C1F34213AE
:1022300001F01F040121A140012B07D0022B07D080
:102240001430002A026805D00A4304E00C30F8E795
:102250001030F6E78A43026010BD000030B5044636
:10226000008A85B00D464CF6FF710840E9880143AD
:102270002182A1894EF6F3100140A8882A891043D3
:102280006A890A431043A081A08A4FF6FF410840A3
:10229000A9890143A1826846FFF78CFB1948844253
:1022A00001D1039800E00298A189090400EBC00164
:1022B00001EB0010296801D5490000E08900B0FB5E
:1022C000F1F06422B0FBF2F109010B096FF018057F
:1022D0006B4300EB8300A3891D044FF0320306D546
:1022E00003EBC000B0FBF2F000F0070005E003EBE9
:1022F0000010B0FBF2F000F00F000843208105B0A1
:1023000030BD0000003801408088C0F308007047ED
:10231000FEE730380A2801D20120704700207047BC
:102320007047704704490A885206FCD5024AC1B278
:10233000121D11807047000000380140FFF7E8FAD5
:10234000FFF708FEFEF7BCFDFEF720FD4FF4A0608E
:10235000FEF724FE4FF4E130FFF7ECFE0CA0FDF792
:102360006BFFFEF7DDFB1148FFF7ACFE4FF4FA748C
:10237000FEF722FDFEF7A2FD21460C48FFF796FE70
:102380000128F5D10948FFF79DFEFEF7B5FDEFE7FF
:102390000D0A55534152543120496E6974204669E3
:1023A0006E6973686564210D0A000000000000205A
:1023B0001F1C1F1E1F1E1F1F1E1F1E1F00030306A4
:1023C00001040602050003052255AA55AA55AA11C3
:1023D00000000000000000001E1E1E1E1E1E1E1E0D
:1023E00001000000000018000000000000000000D4
:1023F0000000000000000F010000000000000000CD
:1024000000000000000000000000000000000000CC
:1024100000000000000000000000000000000000BC
:102420000000000000000C000C000C000C000C0070
:102430000C000C000C0000000C000000000000006C
:1024400000000000000000001DC01DC008800880C2
:1024500008800000000000000000000000000000F4
:102460000000000000000D800D800D800D803FC039
:102470001B003FC01B001B001B001B0000000000D6
:102480000000000004001F803180318038001E00F1
:102490000F000380318031803F0004000400000001
:1024A00000000000000018002400240018C007806D
:1024B0001E00318002400240018000000000000048
:1024C00000000000000000000F00180018001800B5
:1024D0000C001D80370033001D800000000000004C
:1024E00000000000000000000700070002000200DA
:1024F00002000000000000000000000000000000DA
:102500000000000000000300030006000E000C00A5
:102510000C000C000C000E0006000300030000007D
:10252000000000000000180018000C000600060063
:1025300006000600060006000C001C001800000043
:10254000000000000000060006003FC03FC00F0072
:102550001F80198000000000000000000000000043
:10256000000000000000000000000400040004005F
:102570003F80040004000400000000000000000090
:10258000000000000000000000000000000000004B
:10259000000000000000060004000C000800080015
:1025A000000000000000000000000000000000002B
:1025B0003F8000000000000000000000000000005C
:1025C000000000000000000000000000000000000B
:1025D0000000000000000C000C00000000000000E3
:1025E0000000000000C000C0018001800300030063
:1025F00006000C000C00180018003000300000002D
:102600000000000000000E001B003180318031808E
:102610003180318031801B000E000000000000007E
:1026200000000000000006003E0006000600060054
:1026300006000600060006003FC000000000000083
:102640000000000000000F0019803180318003007D
:1026500006000C00180030003F8000000000000061
:102660000000000000003F006180018003001F00A7
:1026700003800180018061803F00000000000000B5
:10268000000000000000070007000F000B001B0007
:10269000130033003F8003000F80000000000000A3
:1026A0000000000000001F801800180018001F0024
:1026B00011800180018021801F00000000000000C7
:1026C00000000000000007801C00180030003700E8
:1026D00039803180318019800F0000000000000037
:1026E0000000000000007F00430003000600060019
:1026F000060006000C000C000C00000000000000AA
:102700000000000000001F003180318031801F0078
:1027100031803180318031801F00000000000000D6
:102720000000000000001E00330031803180338043
:102730001D800180030007003C0000000000000035
:102740000000000000000000000000000C000C0071
:102750000000000000000C000C0000000000000061
:102760000000000000000000000000000300030063
:10277000000000000000060004000800080000003F
:10278000000000000000000000C00300040018006A
:10279000600018000400030000C0000000000000FA
:1027A00000000000000000000000000000007FC0EA
:1027B00000007FC0000000000000000000000000DA
:1027C000000000000000000060001800040003008A
:1027D00000C00300040018006000000000000000BA
:1027E00000000000000000001F00318031800180E7
:1027F00007000C000C0000000C00000000000000AE
:102800000000000000000E00110021002100270040
:10281000290029002700200011000E000000000000
:1028200000000000000000003F000F0009001980B8
:1028300019801F8030C030C079E000000000000027
:1028400000000000000000007F00318031803180F6
:102850003F003180318031807F00000000000000A7
:1028600000000000000000001F4030C06040600019
:1028700060006000604030801F0000000000000029
:1028800000000000000000007F00318030C030C038
:1028900030C030C030C031807F0000000000000038
:1028A00000000000000000007F8030803080320097
:1028B0003E003200308030807F8000000000000049
:1028C00000000000000000007FC0304030403200B7
:1028D0003E003200300030007C00000000000000AC
:1028E00000000000000000001E8031806080600059
:1028F000600067C0618031801F00000000000000A0
:1029000000000000000000007BC031803180318079
:102910003F803180318031807BC0000000000000AA
:1029200000000000000000003FC006000600060096
:1029300006000600060006003FC000000000000080
:1029400000000000000000001FC00300030003009F
:1029500003006300630063003E000000000000000D
:1029600000000000000000007BC031803300360012
:102970003C003E003300318079C0000000000000C0
:1029800000000000000000007E0018001800180081
:1029900018001840184018407FC0000000000000D8
:1029A0000000000000000000E0E060C071C07BC0DB
:1029B0006AC06EC064C060C0FBE0000000000000A0
:1029C000000000000000000073C0318039803D80AD
:1029D000358037803380318079800000000000002E
:1029E00000000000000000001F00318060C060C0D7
:1029F00060C060C060C031801F00000000000000A7
:102A000000000000000000007F0031803180318034
:102A100031803F00300030007E00000000000000E8
:102A200000000000000000001F00318060C060C096
:102A300060C060C060C031801F000CC01F800000FB
:102A400000000000000000007F00318031803180F4
:102A50003E003300318031807CE000000000000047
:102A600000000000000000001F803180318038002D
:102A70001F000380318031803F0000000000000013
:102A800000000000000000007F804C804C804C80E3
:102A90000C000C000C000C003F00000000000000C7
:102AA00000000000000000007BC0318031803180D8
:102AB00031803180318031801F0000000000000033
:102AC00000000000000000007BC0318031801B004E
:102AD0001B001B000A000E000E000000000000009A
:102AE0000000000000000000FBE060C064C06EC099
:102AF0006EC02A803B803B803180000000000000D7
:102B000000000000000000007BC031801B000E00B0
:102B10000E000E001B0031807BC000000000000092
:102B2000000000000000000079E030C019800F00B4
:102B300006000600060006001F80000000000000DE
:102B400000000000000000003F80218023000600FC
:102B500004000C00188030803F800000000000005E
:102B600000000000000007800600060006000600C6
:102B700006000600060006000600060007800000AA
:102B80000000000030003000180018000C000C009D
:102B90000600030003000180018000C000C00000A7
:102BA0000000000000001E000600060006000600EF
:102BB0000600060006000600060006001E000000D3
:102BC0000000000004000A000A001100208020809C
:102BD00000000000000000000000000000000000F5
:102BE00000000000000000000000000000000000E5
:102BF00000000000000000000000000000000000D5
:102C00000000FFE0080004000200000000000000D7
:102C100000000000000000000000000000000000B4
:102C20000000000000000000000000001F00018004
:102C300001801F80318033801DC000000000000033
:102C400000000000000070003000300037003980C4
:102C500030C030C030C03980770000000000000074
:102C60000000000000000000000000001E80318015
:102C700060806000608031801F0000000000000064
:102C80000000000000000380018001801D8033806F
:102C900061806180618033801DC000000000000001
:102CA0000000000000000000000000001F00318054
:102CB00060C07FC0600030C01F80000000000000C6
:102CC00000000000000007E00C000C003F800C003A
:102CD0000C000C000C000C003F8000000000000005
:102CE0000000000000000000000000001DC0338054
:102CF00061806180618033801D80018001801F00C0
:102D00000000000000007000300030003700398003
:102D100031803180318031807BC0000000000000B4
:102D20000000000000000600060000001E00060073
:102D300006000600060006003FC00000000000007C
:102D40000000000000000600060000003F00030035
:102D500003000300030003000300030003003E0020
:102D600000000000000070003000300037803600A6
:102D70003C003C003600330077C00000000000003B
:102D80000000000000001E0006000600060006000D
:102D900006000600060006003FC00000000000001C
:102DA0000000000000000000000000007F8036C02E
:102DB00036C036C036C036C076E0000000000000E5
:102DC00000000000000000000000000077003980D3
:102DD00031803180318031807BC0000000000000F4
:102DE0000000000000000000000000001F00318013
:102DF00060C060C060C031801F00000000000000A3
:102E00000000000000000000000000007700398092
:102E100030C030C030C039803700300030007C0016
:102E20000000000000000000000000001DC0338012
:102E300061806180618033801D800180018007C0D6
:102E40000000000000000000000000007B801CC0AB
:102E500018001800180018007F0000000000000093
:102E60000000000000000000000000001F80318012
:102E70003C001F00038031803F0000000000000084
:102E80000000000000001800180018007F00180063
:102E900018001800180018800F0000000000000043
:102EA000000000000000000000000000738031807E
:102EB00031803180318033801DC00000000000006F
:102EC0000000000000000000000000007BC0318016
:102ED00031801B001B000E000E00000000000000EF
:102EE000000000000000000000000000F1E060C0F1
:102EF00064C06EC03B803B80318000000000000059
:102F00000000000000000000000000007BC01B006B
:102F10000E000E000E001B007BC000000000000031
:102F200000000000000000000000000079E030C058
:102F3000198019800B000F00060006000C003E00EF
:102F40000000000000000000000000003F80218021
:102F500003000E00180030803F80000000000000D9
:102F600000000000000006000C000C000C000C002B
:102F70000C0018000C000C000C000C0006000000F7
:102F80000000000000000600060006000600060023
:102F90000600060006000600060006000600000007
:102FA0000000000000000C000600060006000600FD
:102FB0000600030006000600060006000C000000E4
:102FC00000000000000000000000000000001800E9
:102FD000248003000000000000000000000000004A
:102FE00000000000040000080000000000000002D3
:102FF0000001000010000000455F455044303031B2
:103000003A4661696C656420746F206170706C79F8
:10301000206D656D6F727921204D6179206E656537
:103020006420746F2073657420796F752068656102
:10303000702073697A652121210D0A00446562754B
:10304000673A205061696E745F447261775374729D
:10305000696E675F454E20496E70757420657863B0
:103060006565647320746865206E6F726D616C2095
:10307000646973706C61792072616E67650D0A0016
:1030800044656275673A205061696E745F4472618D
:1030900077436972636C6520496E7075742065783A
:1030A000636565647320746865206E6F726D616C12
:1030B00020646973706C61792072616E67650D0AB6
:1030C00000000000E4300008000000205C00000068
:1030D00028010008403100085C00002004210000A5
:1030E000440100080000000002040608000000007F
:1030F00001020304010203040607080900A24A04AE
:103100000000000000000000010203040607080997
:1031100000000000000000000000000000000000AF
:10312000000000000000000000000000000000009F
:103130000000FFFFFFFF0000042400080B00100048
:04000005080000ED02
:00000001FF
