:020000040800F2
:100000006821002099010008450F00089B0D000899
:10001000430F0008210800087D21000800000000AF
:10002000000000000000000000000000F31C0008B9
:10003000A50800080000000015150008351E00087E
:10004000B3010008B3010008B301000881180008DB
:10005000B3010008B3010008B3010008B3010008B0
:10006000B3010008B3010008B3010008B3010008A0
:10007000B3010008B3010008B3010008B301000890
:10008000B3010008B3010008B3010008B301000880
:10009000B3010008B3010008B3010008B301000870
:1000A000B3010008B3010008B3010008951E000861
:1000B000B3010008C91E0008B3010008B30100081D
:1000C000B3010008B3010008B3010008B301000840
:1000D000B30100083D1F0008B3010008B301000888
:1000E000B3010008B3010008B301000800F002F8F2
:1000F00000F043F80AA090E8000C82448344AAF17F
:100100000107DA4501D100F038F8AFF2090EBAE87C
:100110000F0013F0010F18BFFB1A43F0010318473B
:100120003C4B00005C4B0000103A24BF78C878C1FB
:10013000FAD8520724BF30C830C144BF04680C60ED
:10014000704700000023002400250026103A28BF35
:1001500078C1FBD8520728BF30C148BF0B60704739
:10016000642900F09D80002070471FB59DE80300C2
:1001700000F0B6F91FBD10B510BD00F094FA11469D
:10018000FFF7F3FF02F042F900F0B2FA03B4FFF711
:10019000F2FF03BC01F0FAFF094880470948004715
:1001A000FEE7FEE7FEE7FEE7FEE7FEE7FEE7FEE727
:1001B000FEE7FEE704480549054A064B7047000084
:1001C000451E0008ED00000868010020682100209D
:1001D0006811002068110020704770B5064600F0D5
:1001E00063F9056806F10B0020F00704B4429CBFD8
:1001F000002070BD2B466A68BAB11068A04210D3C7
:1002000004F1080188423CBF5068586007D3516828
:10021000101941601168091B016058601460101DBD
:1002200070BD13465268002AE7D12146284600F0E7
:1002300043F90028DED170BD70B50446051F00F0FB
:1002400033F90068002C14BF446870BD002C18BF3F
:10025000AC423CBF20466468F8D301680A18AA4241
:1002600018BF456003D12A6805461144016028681B
:100270004119A1421CBF6C6070BD61686960216852
:100280000844286070BD00000FB4044910B503AAEB
:10029000029800F0CDF910BC5DF814FB440000207A
:1002A0002DE9F0410646002410687529314616A54F
:1002B00010D0AFF30080002802DA404213A507E017
:1002C00031688A0701D512A502E0490704D511A5B6
:1002D000012401E0AFF3008000210A2206F1240787
:1002E00009E0B0FBF2FCB0FBF2F302FB1C00303083
:1002F00078541846491C0028F3D123462A46304634
:10030000BDE8F04100F022B9000000002D0000001F
:100310002B000000200000002DE9F05F8946044614
:100320004FF0000ADFF874B1FB44C0F820A020466B
:10033000E1688847002874D0252806D0D4E9012137
:100340009047206A401C2062F1E700265F46204665
:10035000E16888472028054607DB312D05D278194A
:1003600010F8200C08B10643F1E7B00701D526F0DC
:100370000406C4F81CA00027C4F818A02A2D09D030
:10038000284601F0FCFE38B304EB8708303DC8F87E
:10039000185019E059F8041B204604EB87029161BC
:1003A000E1688847012F054618D1E069002820DA66
:1003B00026F020061DE0D8F8180000EB800005EBC1
:1003C00040003038C8F818002046E16888470546E4
:1003D00001F0D5FE0028EED1012F0AD02E2D08D134
:1003E0002046E16888477F1C0546022F46F020061C
:1003F000C4DBA069002803DA404246F00106A06190
:10040000F00701D026F010066C2D0BD0682D09D016
:100410004C2D39D06A2D35D0742D35D07A2D33D06E
:1004200016E038E0E1682F4620468847B842054686
:1004300009D16C2F26D04FF48060E1680643204636
:100440008847054604E06C2F1AD04FF480700643AD
:100450000DB3A5F14100192802D8203546F40066F5
:100460004A462946204626604E46FFF779FE80B16F
:1004700001280BD0F61D26F0070000F1080956E709
:100480004020E4E78020D8E70020D6E706F1040901
:100490004DE7284652E7206ABDE8F09F1C4900005E
:1004A0007047704770477047004870471001002040
:1004B000704770477047704738B504460A460020B9
:1004C0006946AFF30080002808BF38BD0246009996
:1004D000204600F0C3F8012038BD012000F0DCB850
:1004E000F8B5AFF30080054600200C46102000BF91
:1004F0000646A819A0420DD9324669460020AFF33E
:100500000080070008BF00F0C7F80098A04218BF9D
:100510000546C419FFF7C8FF05600746F01D20F027
:1005200007004619284600F00AF8B44208BFF8BD93
:10053000A21B31463868BDE8F84000F08FB80021B2
:100540000160C0E901107047102070472DE9F047A5
:100550000D4699469246044600F124080168880633
:1005600004D5E06921F01001216000E00120A842DB
:1005700001DD471B00E00027A1697A1902EB0900A1
:10058000081AA0612078C00602D42046AFF300808C
:10059000002608E0D4E901211AF806009047206AF5
:1005A000401C761C20624E45F4DB2078C0060AD53C
:1005B0002046AFF3008006E0D4E9012130209047C7
:1005C000206A401C2062381EA7F10107F4DC07E016
:1005D000D4E9012118F805009047206A401C2062E8
:1005E000281EA5F10105F3DC2046AFF3008020783A
:1005F000000602D50220BDE8F0870120FBE70000DD
:1006000001694A1C02610878704700B58FB0CDE9D6
:1006100001310021059105497944CDE903101146C6
:100620006846FFF779FE0FB000BD0000E5FFFFFF51
:10063000074B70B50D467B44FFF7E7FF044628469D
:1006400000F026F810B14FF0FF3070BD204670BDAD
:10065000BB1D0000004870470801002003464068A9
:100660008C46002818BF88423CBF03464068F8D338
:1006700018681844884207D00CF1030020F00700E6
:10068000001D411A521A0146081D0A60FFF7D4BD29
:10069000007B00F08000704710B500F037F8BDE82F
:1006A000104000F02EB87546FFF7D4FFAE460500A7
:1006B0006946534620F00700854618B020B5FFF77D
:1006C00079FDBDE820404FF000064FF000074FF0E5
:1006D00000084FF0000B21F00701AC46ACE8C00960
:1006E000ACE8C009ACE8C009ACE8C0098D46704769
:1006F00010B50446AFF300802046BDE81040FFF778
:1007000045BD002801D001F041BD704710B501285A
:1007100005D0002103A000F021F8012010BD09A19F
:10072000F8E7000053494752544D454D3A204F7564
:1007300074206F662068656170206D656D6F7279D9
:10074000000000003A2048656170206D656D6F7291
:100750007920636F727275707465640070B50546B8
:100760000C460A2000E06D1C01F011FD35B128781F
:100770000028F8D102E0641C01F009FD14B12078D2
:100780000028F8D1BDE870400A2001F000BD00004B
:1007900070B50E4D6878002817D101F057F804465F
:1007A00001F0BEF93C20B4FBF0F100FB1140002841
:1007B0000BD104F13C0001F0EFF801F07BFD0120CA
:1007C0006870BDE8704000F06BBA70BD5400002046
:1007D00010B501F03BF8044601F0A2F904F13B002A
:1007E00001F0DAF8BDE8104000F05ABA10B5012067
:1007F00000F0CEFEBDE81040002000F0C9BE0000B1
:1008000008B5024908440090008808BD006C00400B
:1008100008B5024A10440090016008BD006C004019
:10082000FEE7000010B5094C00220421204600F02C
:10083000AFFA00221021204600F0AAFA012202217C
:10084000204600F0A5FA002010BD0000000801407D
:1008500001F0F6B930B56424B0FBF4F3B0FBF4F565
:10086000DBB204FB1500132B01D96430C0B200EBDE
:1008700090040723B4FBF3F503FB1544084D224411
:100880000D44800715F8015C2A4492B203D1032974
:1008900001D2521E92B2B2FBF3F003FB102030BD26
:1008A000D024000870474FF47A714843AFF30080BA
:1008B00070B54FF0E024002265690949A369097801
:1008C0004843A1699942FCD002D2A3EB010302E0A4
:1008D000A5EB010633441A440B468242F1D370BDA6
:1008E0004800002038B50121042000F045FE162004
:1008F000ADF8000010208DF803000F4D03248DF893
:1009000002406946284600F0EBF90820ADF80000E7
:1009100004208DF803008DF802406946284600F057
:10092000DFF906480121C0F884110021C0F88811C0
:10093000C0F88C1138BD00000008014000002142C1
:1009400010B501F039F9BDE8104001F04BB90000D5
:100950002DE9F04781464FF0FA0800211027434661
:100960007A22084600F02EF900242146002000F0EB
:1009700013F9242000F0DCF8002504FB07F600BF83
:1009800009EB0500305C00F0EDF86D1CADB2BD4226
:10099000F6D3641CA4B24445E7D3BDE8F04700F0A9
:1009A00035B9000070B5384D0446012202212846B1
:1009B00000F0EEF9C820FFF776FF0022022128465A
:1009C00000F0E6F90A20FFF76EFF01220221284617
:1009D00000F0DEF9C820FFF766FF012000F0A8F85C
:1009E000F92000F0BFF8002000F0BCF8002000F073
:1009F000B9F80C2000F09CF8D72000F0B3F8D6200E
:100A000000F0B0F89D2000F0ADF82C2000F090F838
:100A1000A82000F0A7F83A2000F08AF81A2000F089
:100A2000A1F83B2000F084F8082000F09BF83C205F
:100A300000F07EF8032000F095F8112000F078F81F
:100A4000032000F08FF8322000F072F834B1012C4E
:100A50000ED0BDE870400DA0FFF716BC1A4D002463
:100A6000285D00F07FF8641CA4B21E2CF8D370BD82
:100A7000154D00241E35285D00F074F8641CA4B2E6
:100A80001E2CF8D370BD000000080140446562755B
:100A9000673A206572726F722C20746865204D6F02
:100AA0006465206973204550445F32494E31335F9D
:100AB00046554C4C206F72204550445F32494E31B0
:100AC000335F5041525400007C34000810B509A037
:100AD000FFF7DAFB0D4C02E06420FFF7E4FE08218B
:100AE000204600F04EF90128F6D0BDE8104008A0DD
:100AF000FFF7CABB44656275673A20652D50617087
:100B0000657220627573790D0A00000000080140CB
:100B100044656275673A20652D5061706572206288
:100B20007573792072656C656173650D0A0000004C
:100B300070B50B4C054600220421204600F028F930
:100B400000221021204600F023F92846FFF780FEFE
:100B50002046BDE870400122102100F019B90000C4
:100B60000008014070B50B4C0546012204212046C7
:100B700000F00EF900221021204600F009F9284665
:100B8000FFF766FE2046BDE870400122102100F00C
:100B9000FFB800000008014070B505460C464E2025
:100BA000FFF7C6FFC5F3C700FFF7DCFF4F20FFF7D5
:100BB000BFFFE0B2FFF7D6FFC4F30720BDE87040E7
:100BC000FFF7D0BF2DE9F04107461C4616460D46FB
:100BD0004420FFF7ADFFC7F3C700FFF7C3FFC6F31D
:100BE000C700FFF7BFFF4520FFF7A2FFE8B2FFF7FE
:100BF000B9FFC5F30720FFF7B5FFE0B2FFF7B2FF7B
:100C0000C4F30720BDE8F041FFF7ACBF10B52220C8
:100C1000FFF78EFFC420FFF7A5FF2020FFF788FF16
:100C2000FF20FFF785FFBDE81040FFF74FBF000032
:100C300030B51A498379026853B30B6893430B604C
:100C40000A1D13680468A343136002790A441368F9
:100C5000046823431360114A083213680468A343ED
:100C60001360131D1C680568AC431C604479102C8C
:100C700005D021440A68006802430A6030BD11684B
:100C8000046821431160196800680143196030BD90
:100C90000079084401689143016030BD00040140BF
:100CA00010B50121080700F05BFCBDE8104000F022
:100CB0008DB9000004490A6822F010020A600A682F
:100CC00002430A607047000000200240034A116896
:100CD00001F038010143116070470000002002401C
:100CE000F0B5CA78002502F00F03D20601D58A7844
:100CF00013430A784FF00F0E12F0FF0F4FF001026E
:100D00001CD004680F8802FA05F63740B74211D1AB
:100D10004FEA850C0EFA0CF724EA070703FA0CF4E5
:100D20003C43CF78282F02D0482F02D002E0466102
:100D300000E006616D1C082DE4D304600C88FF2CD4
:100D40001ED944685FF0000606F1080702FA07F5AD
:100D50000F882F40AF420FD14FEA860C0EFA0CF7E6
:100D6000BC4303FA0CF73C43CF78282F00D14561F0
:100D7000CF78482F00D10561761C082EE4D344605B
:100D8000F0BD0246002092680A4200D00120704760
:100D90000AB10161704741617047FEE708B5012162
:100DA000042000F0E9FB7F20ADF8000048208DF81A
:100DB000030003208DF8020069460248FFF790FF08
:100DC00008BD0000000C014070B53F4C002001251B
:100DD00062780146052A75D2DFE802F0030C172E6F
:100DE0004B00394A08321154401CC0B20528FAD3CE
:100DF000657070BD00F0A8FEA0700028F9D03248E0
:100E0000001D01F095F8022031E000F09DFEA17870
:100E10008842EDD12C481E21001D01F07DF80128EB
:100E2000E7D1A07800F090FB03206070BDE870402F
:100E30002548001D01F07CB800F086FE50B300F09C
:100E400083FEA178884225D11F484FF47A71001D96
:100E500001F062F80128CCD11B48001D01F068F8B0
:100E6000A07840F08000A07000F06EFB042060705D
:100E700070BD00F069FE68B100F066FEA17840F038
:100E8000800088420BD000F05FFEA17840F0C000E7
:100E9000884204D00C48001D01F04AF8A8E70A482F
:100EA000C821001D01F038F80128E1D10648001DD5
:100EB00001F03EF8A07840F04000A070BDE870401E
:100EC00000F042BB617070BD3400002000F024BB14
:100ED00008B50121082000F04FFB4FF48050ADF819
:100EE000000010208DF8030003208DF802006946F1
:100EF0000348FFF7F5FE03490120C1F8B00108BD22
:100F0000000C0140008021420348D0F8B011C943D1
:100F1000C0F8B011704700000080214281070CD159
:100F20006421B0FBF1F201FB120141B94FF4C87129
:100F3000B0FBF1F201FB120008B100207047012064
:100F40007047FEE77047000070B50F23C478017842
:100F50000122F4B1144C2468457804F4E064C4F52B
:100F6000E064240AC4F10406E3408478B5401C40E0
:100F70002C4301F1E021230181F80034007800F0D6
:100F80001F018A404009800000F1E020C0F80021E4
:100F900070BD01F01F0082404809800000F1E02090
:100FA000C0F8802170BD00000CED00E0024908434C
:100FB00002490860704700000000FA050CED00E0EF
:100FC000014908627047000000000E4207480168AE
:100FD00041F004010160016841F002010160044830
:100FE000016841F00401016030BF704700700040AB
:100FF00010ED00E030B500210A4AC3B20DE0002038
:1010000006E000BF01FB04041568401C80B22B55AC
:10101000548A8442F6D8491C89B2908A8842EED814
:1010200030BD0000F00000202DE9F0471F461646B5
:101030000D468046DDF820900CE0444606E04A4626
:101040002946204600F0EAF9641CA4B2B442F6D363
:101050006D1CADB2BD42F0D3BDE8F08770B5002283
:10106000094B0DE0002106E002FB04141E68055D3B
:10107000491C355589B25C8A8C42F5D8521C92B213
:10108000998A9142EED870BDF00000202DE9F05F02
:1010900081462A481E46DDF82CB0838888464B4599
:1010A00002D3C188414504D2BDE8F05F24A0FFF718
:1010B000EBB8B088410700D0012101EBD000203A05
:1010C000F1885043484331684FF0800A0F180025DB
:1010D0002FE0002424E000BFBBF1FF0F3A7804F0BA
:1010E00007012AFA01F002EA000201D00AB908E079
:1010F00082B108EB050081B209EB040080B20A9AC4
:1011000006E008EB050081B209EB040080B25A4604
:1011100000F084F9E043400700D17F1C641CA4B2B6
:10112000B088A042D8D83079400700D07F1C6D1C11
:10113000ADB2F088A842CCD8BDE8F09FF000002006
:1011400044656275673A205061696E745F447261EC
:10115000774368617220496E7075742065786365A5
:1011600065647320746865206E6F726D616C2064B5
:101170006973706C61792072616E67650D0A000099
:101180002DE9FE4F1646314A1D46834693888A460E
:10119000834206D3D2888A4203D3B34201D3AA4200
:1011A00004D2BDE8FE4F2AA0FFF76EB8321A00D570
:1011B000821B91466A1A002A00DD4A1B90464FF0B6
:1011C000FF32B34501D2012000E010460290AA454B
:1011D00000D2012209EB0804002701927F1C0E981F
:1011E000FFB2012805D10320B7FBF0F100FB11701D
:1011F000F8B10120DDE90C2300905146584600F07B
:1012000047F800BFB8EB440F07DCB3451BD0029989
:1012100044440BEB01001FFA80FBB9EB440FDDDB0C
:10122000AA4510D001994C440AEB01001FFA80FA3C
:10123000D4E701200090FF22514658460D9B00F054
:1012400027F80027DEE7BDE8FE8F0000F000002051
:1012500044656275673A205061696E745F447261DB
:10126000774C696E6520496E70757420657863658A
:1012700065647320746865206E6F726D616C2064A4
:101280006973706C61792072616E67650D0A000088
:101290002DE9F05F2B4D93468146AA880A981C469B
:1012A00088464A4502D3EA8842450ED226A0FEF778
:1012B000EBFFAA88494634A0FEF7E6FFEA884146DC
:1012C000BDE8F05F39A0FEF7DFBF012801D000269E
:1012D00034E00025681E00EB440718E009EB050028
:1012E0000026A0EB040A0EE0BAF1000F0DD408EBC3
:1012F0000600001B09D481B21FFA8AF05A4600F09A
:101300008DF8761C36B2B742EEDC6D1C2DB2AF42C2
:10131000E4DCBDE8F09F002509EB06077F1E09E02D
:1013200008EB0500401E81B2B8B25A4600F076F8CC
:101330006D1C2DB2A542F3DB761C36B2A642EADB69
:10134000E7E70000F000002044656275673A20502E
:1013500061696E745F44726177506F696E74204981
:101360006E70757420657863656564732074686554
:10137000206E6F726D616C20646973706C6179208E
:1013800072616E67650D0A0058706F696E74203D5A
:10139000202564202C205061696E742E5769647476
:1013A00068203D20256420200D0A200059706F69B7
:1013B0006E74203D202564202C205061696E742EAF
:1013C000486569676874203D20256420200D0A2047
:1013D0000000000070B50D4C049E002520602181A6
:1013E0006281A6810220E0824E074FEAD10000D040
:1013F000401C6082A282E381258223B1B42B02D0FB
:10140000A280E18070BDA180E28070BDF00000206C
:101410000149086070470000F0000020F0B4324C31
:10142000A388834234D3E3888B4231D32346E789B0
:101430001E895D89CFB15A2F1AD0B42F1CD0B7F5B1
:10144000877F3FD10B46281A401E80B2218AD9B12E
:10145000012916D0022904D0032933D1F11A491EDB
:101460008BB2281A401E80B20EE003460846EDE714
:10147000711A491E8BB2E9E7301A401E83B2681A0E
:10148000E2E7F11A491E8BB29E4201D3854203D294
:10149000F0BC16A0FEF7F8BE1349E58A4C8A09682D
:1014A000022D11D0042D0DD1444304EB9304900779
:1014B0009B075B0FC025DD400A5D000EAA43D840A4
:1014C00010430855F0BC7047444304EBD30480201C
:1014D000002A0D5D03F0070220FA02F001D0284334
:1014E000EFE785430D55EDE7F00000204465627598
:1014F000673A20457863656564696E67206469733F
:10150000706C617920626F756E6461726965730DCC
:101510000A0000007047000030B50A4C0021237813
:1015200073B104F10802107855186D785554491CB0
:10153000C9B20429F8D3002111715B1E237030BD9C
:10154000002030BD34000020044A1178052904D25F
:1015500002F108035854491C1170704734000020F0
:10156000044A0029D16901D0014300E08143D161DF
:101570007047000000100240044A0029916901D020
:10158000014300E081439161704700000010024078
:1015900001490860704700004004424210B500F065
:1015A0002FF84FF48034204600F0BCF800F020F90A
:1015B000012823D14FF4E011204600F0F7F8002075
:1015C00000F0A6F8A01100F0D7F8002000F0DEF837
:1015D0000220FFF77BFB1020FFF76CFB012000F0DF
:1015E000DFF8392000F074F80028FAD0022000F06B
:1015F000F5F800BF00F084F80828FBD110BD00000A
:101600000C48016841F00101016041680A4A11403B
:1016100041600168094A11400160016821F480219C
:101620000160416821F4FE0141604FF41F018160B7
:1016300070470000001002400000FFF8FFFFF6FEB8
:1016400030B51F494A6812F00C031E4A03D0042B20
:1016500001D0082B21D002604A680F231A4C03EAFC
:101660001212A35C0268DA4042604B68072505EA63
:101670001323E35C22FA03F383604B6805EAD32368
:10168000E35CDA40C2604968032303EA9131231F17
:10169000595CB2FBF1F1016130BD4A684B6802F45C
:1016A00070124FF0020413F4803F04EB924202D018
:1016B0004B689B0301D5054B00E0024B5A43CAE738
:1016C0000010024000127A001000002000093D00C6
:1016D0000246002053090949012B0BD0022B0BD0E5
:1016E000D1F8241002F01F02012393400B4200D0D6
:1016F000012070470968F5E7096AF3E70010024026
:101700000248406800F00C007047000000100240E2
:10171000034A516821F0F001014351607047000015
:10172000001002400B490A6822F480320A600A68FD
:1017300022F480220A60B0F5803F07D0B0F5802FF8
:1017400003D1086840F4A02008607047086840F49E
:101750008030F9E7001002400649002281F820207D
:1017600081F82020012802D0042802D1052081F828
:101770002000704700100240034A516821F4E061E4
:1017800001435160704700000010024003494A685D
:1017900022F4605242EAC0004860704700100240E4
:1017A000014908667047000000004242034A53683E
:1017B000084323F47C131843506070470010024024
:1017C00001490860704700003C04424202490A6A2D
:1017D00002430A627047000000100240034A516849
:1017E00021F00301014351607047000000100240E6
:1017F00018B500204FF4A06400903120FFF768FF77
:101800000099491C0091A14201D00028F5D0312057
:10181000FFF75EFF002800D0012018BD02490A88AA
:1018200082430A8070470000042800400248018873
:1018300041F01001018070470428004002480188EF
:1018400021F01001018070470428004003480088FF
:101850000249091F098840EA014070471C280040DE
:1018600006490988C2B21140044A121F1288024276
:1018700002D009B1012070470020704704280040C1
:1018800010B50120FFF7ECFF20B10120FFF7C6FFE4
:1018900000F0B2F80220FFF7E3FF40B10220FFF7AB
:1018A000BDFF00F0A9F800F005FDFEF791FF042050
:1018B000FFF7B4FFBDE8104000F032B9044A002938
:1018C000118801D0014300E081431180704700007E
:1018D0000028004038B5002401214FF0C050FFF728
:1018E0003FFE0120FFF76CFB0420FEF789FF45F265
:1018F0005005A84237D0FEF779FF0120FFF72CFFF3
:1019000008E0641CE4B20A20FEF7CDFFC82C01D920
:10191000002038BD4120FFF7DBFE0128F1D1000295
:10192000FFF754FF0120FFF74BFF00F0F9F800F03C
:10193000FFF801210846FFF7C1FF00F0F1F8FFF7BB
:1019400075FF47F6FF7000F047F800F0E9F8002057
:1019500000F032F800F0E4F8FFF770FF29460420A9
:10196000FEF756FF07E000F0E3F801210320FFF740
:10197000A5FF00F0D5F803208DF8000000208DF8B9
:1019800001008DF8020001208DF803006846FFF782
:10199000DBFA012038BD000000B50246FFF746FF24
:1019A0000449100C0880081D02805DF804EBFFF765
:1019B00045BF00002028004000B50246FFF736FF73
:1019C0000449100C0880081D02805DF804EBFFF745
:1019D00035BF00001828004000B50246FFF726FF7B
:1019E0000449C2F303400880081D02805DF804EB3F
:1019F000FFF724BF082800402DE9F05F444D4FF465
:101A0000616800226888434C4FF03C09404519D278
:101A10002978012916D0401C80B24946B0FBF1F369
:101A2000DBB2688063703B2B00D96270B0FBF8F3C7
:101A300008FB1300B0FBF1F209FB1200A0700120BB
:101A4000BDE8F09F2A70FFF701FFDFF8CCA0074642
:101A5000B0FBFAF3A888984230D0AB8040F2B2765F
:101A60004FF4B67B10E03046FFF758FA40B106F16C
:101A70000106B3F5B77FB6B208D3A3F5B77303E099
:101A8000761CB6B2A3F26D135B45ECD8A680002697
:101A9000DFF888B00CE0A088FFF740FA08B1012E0B
:101AA00031D01BF80600984204D81B1A761CB6B237
:101AB0001C2BF0D2761CA6715B1C2372B7FBFAF1CB
:101AC0000AFB11714046B1FBF0F22270B1FBF0F25B
:101AD00008FB12134A46B3FBF2F36370B1FBF0F359
:101AE00008FB1313B3FBF9F609FB1632A270B1FB26
:101AF000F8F208FB12106880227AA179A088FEF71C
:101B0000A9FEE0719BE71D2BD4D31D3BCEE700005F
:101B100054000020E400002080510100C42400088B
:101B2000024801888906FCD570470000042800405F
:101B30000448018821F00801018001880907FCD5CB
:101B4000704700000428004010B51A4C01212046BF
:101B5000FFF717F9F8B102212046FFF712F9E0B1BB
:101B600004212046FFF70DF9C8B108212046FFF7F0
:101B700008F9B0B110212046FFF703F998B12021F0
:101B80002046FFF7FEF880B140212046FFF7F9F824
:101B900068B1002010BD302010BD312010BD3220B2
:101BA00010BD332010BD342010BD352010BD3620AF
:101BB00010BD0000000C014008B501210420FFF712
:101BC000DBFCA020ADF8000018208DF803000320F6
:101BD0008DF8020069460248FFF782F808BD000050
:101BE0000008014010B5012186B00803FFF7C4FCCE
:101BF0004FF48270ADF802000020ADF808004FF4F9
:101C00000071ADF80A102821ADF80C10ADF80400F1
:101C1000ADF80000ADF80600ADF80E000A20074C44
:101C2000ADF810006946204600F047F8FFF7C4FF02
:101C30000121204600F02CF806B010BD0030014014
:101C400070B506460024114D03E0641CE4B2C82CB4
:101C50000FD80221284600F025F80028F5D031469B
:101C6000284600F028F8002405E0641CE4B2C82CE3
:101C700001D9002070BD0121284600F013F800288A
:101C8000F3D0284600F015F8C0B270BD0030014016
:101C90000029018802D041F0400101E021F040011B
:101CA000018070470246002012890A4200D00120BC
:101CB0007047808970478181704730B502884C88B1
:101CC00002F441530A88CD8822438C882C43224356
:101CD0000C8922434C8922438C892243CC8922439C
:101CE0001A430280828B22F400628283098A018275
:101CF00030BD70470CB50021264801910091026863
:101D000042F4803202604FF4A063026802F40032B1
:101D10000092019A521C0192009A12B9019A9A42B9
:101D2000F3D10268920333D5012100911A490A6860
:101D300042F010020A600A6822F003020A600A6890
:101D400042F002020A6041684160416841604168B6
:101D500041F480614160416821F47C114160416837
:101D600041F4E8114160016841F08071016001684F
:101D70008901FCD5416821F003014160416841F0CF
:101D8000020141604168C1F381010229FAD10CBD11
:101D900000910CBD00100240002002401CB54FF421
:101DA0000030009000208DF8040008208DF8050018
:101DB00001208DF806006846FEF73AFF1CBD0000C2
:101DC000124813490068B0FBF1F01249C0B200EBB1
:101DD00040020870C2EBC0104FF6FF7202EAC0006A
:101DE0004880B0F1807F0FD24FF0E021401E486163
:101DF000094AF02082F8140D00208861072008614C
:101E00006FF0040000F00AB8FEE700002000002098
:101E100000127A00480000200FE000E04FF0E021BF
:101E20000428086903D020F004000861704740F0DE
:101E30000400FAE702484168491C4160704700000D
:101E4000480000200F4810B5016841F00101016011
:101E500041680D4A1140416001680C4A114001601F
:101E6000016821F480210160416821F4FE01416094
:101E70004FF41F018160FFF73DFF05494FF00060FF
:101E8000086010BD001002400000FFF8FFFFF6FEE2
:101E900008ED00E010B50B4C0221204600F02BF8B5
:101EA00000280DD00221204600F022F80021204613
:101EB00000F02FF82046BDE81040642100F027B85C
:101EC00010BD0000002C014010B5084C0121204637
:101ED00000F011F8012807D10121204600F008F890
:101EE000BDE81040FFF710B810BD0000000400402E
:101EF000C9430182704702460020138A92890B422F
:101F000002EA010202D0002A00D001207047818637
:101F10007047818470470000044A00685268101AB4
:101F2000884201D3012070470020704748000020FC
:101F300001494968016070474800002070B5154CA0
:101F400040F22551204600F087F800280ED02046A8
:101F500000F010F9C2B2104801880B0406D44C04FA
:101F60004FF0000306D40A2A01D0038070BD41F46B
:101F700000410DE00D2A09D0C1F30D04074D491CA5
:101F800089B22A5501807F29EFD870BD41F4804184
:101F9000018070BD00380140420000206400002034
:101FA00070B5054686B0012144F20400FFF7E4FA5B
:101FB0004FF40070ADF8100018208DF813001F4E7C
:101FC00003248DF8124004A93046FEF789FE30152F
:101FD000ADF8100004208DF813008DF8124004A90C
:101FE0003046FEF77DFE25208DF814008DF8154053
:101FF0008DF8164001208DF8170005A8FEF7A4FF04
:102000000020ADF80400ADF80600ADF80800ADF80A
:102010000C000C200A4CADF80A00009569462046D9
:1020200000F052F8012240F22551204600F033F82A
:102030000121204600F006F806B070BD00080140FE
:10204000003801400029818902D041F4005101E0AB
:1020500021F400518181704730B501F01F02012445
:102060000025C1F3421304FA02F2012B0FD0022B18
:102070000FD0838A4FEA11210088134204FA01F439
:1020800000EA040001D000B10125284630BD838953
:10209000F0E7038AEEE710B5C1F3421301F01F0425
:1020A0000121A140012B07D0022B07D01430002AB8
:1020B000026805D00A4304E00C30F8E71030F6E778
:1020C0008A43026010BD000030B50446008A85B026
:1020D0000D464CF6FF710840E98801432182A18931
:1020E0004EF6F3100140A8882A8910436A890A43F2
:1020F0001043A081A08A4FF6FF410840A9890143FF
:10210000A1826846FFF79CFA1948844201D10398DE
:1021100000E00298A189090400EBC00101EB001066
:10212000296801D5490000E08900B0FBF1F0642284
:10213000B0FBF2F109010B096FF018056B4300EBDE
:102140008300A3891D044FF0320306D503EBC000C2
:10215000B0FBF2F000F0070005E003EB0010B0FB6D
:10216000F2F000F00F000843208105B030BD000000
:10217000003801408088C0F308007047FEE730381F
:102180000A2801D20120704700207047704770472D
:10219000FEB5FEF747FB0020FEF704FC4FF4FA758E
:1021A0002846FEF780FB294C6088FEF716F8606031
:1021B000002845D0FF2100914FF48773FA227A213D
:1021C000FFF708F922A0FEF75FF828A0FEF75CF8F9
:1021D0006068FFF71DF9FF20FEF70CFF2A48FEF7A5
:1021E0003DFF6068FEF7B4FB2846FEF75CFBFF206E
:1021F000FEF700FF00250126CDE90056B4227A2320
:10220000294610460295FEF7BBFFCDE9005629236B
:10221000FA221946B5200295FEF7B2FFCDE9005625
:102220005223FA221946B5200295FEF7A9FF6068ED
:10223000FEF78EFB0120FEF7B5FB26700020FEBDE9
:1022400012A0FEF721F84FF0FF30FEBD0400002081
:102250004170706C7920666F72204D656D6F727978
:10226000204F4B212E2E2E0D0A00000053686F7751
:10227000207374617274207570206C6F676F212EEB
:102280002E2E0D0A00000000DC2400084661696C57
:10229000656420746F206170706C7920666F7220A5
:1022A000626C61636B206D656D6F72792E2E2E0DE1
:1022B0000A0000002DE9F04F48A285B007CA02AB22
:1022C0004FF0140B83E8070047490A2009780129D9
:1022D0007DD1464AFF2691880096D288CCB214322E
:1022E000C1EBC10193B20A318AB25946FEF79CFE96
:1022F000DFF8FC800A250DF1080998F80000002796
:10230000B0FBF5F1394B19F80120CDE900765946BB
:102310002846FEF7BBFE98F80000344BB0FBF5F101
:1023200005FB110104F10A0019F80120CDE900763E
:1023300082465946FEF7AAFECDE900760AEB040074
:102340002A4B20225946FEF7A1FE98F8010004EB23
:10235000440AB0FBF5F10AF10A0019F80120CDE9B1
:102360000076224B5946FEF791FE98F801001F4B6C
:10237000B0FBF5F105FB110105EB840019F8012014
:10238000CDE900765946FEF781FE98F80200174B1A
:10239000B0FBF5F104EB840019F80120CDE90076DB
:1023A00059460A30FEF772FE98F802000F4BB0FB58
:1023B000F5F105FB110105EB4A0019F80120CDE903
:1023C00000765946FEF762FE0748406800E001E0EB
:1023D000FEF7BEFA05B0BDE8F08F000030313233B1
:1023E0003435363738390000040000205C00002006
:1023F000E400002004490A885206FCD5024AC1B212
:10240000121D118070470000003801400024FFF7C2
:10241000C5F8FFF7D5FCFEF75BFDFEF7BFFC4FF4F8
:10242000A060FEF7C3FD4FF4E130FFF7B9FD17A040
:10243000FDF72AFFFEF784FAFEF754FA07E0641C62
:10244000E4B2FA2C03D318A0FDF71EFF03E0FFF758
:1024500041FA0028F3D01A48FFF76AFDFFF79EFC07
:10246000FFF796FE4FF4FA74FEF7AEFCFEF72EFD72
:10247000FEF78EF921461248FFF74EFD0128F3D1F1
:102480000F48FFF755FDFEF73FFDEDE70D0A5553E9
:102490004152543120496E69742046696E697368EF
:1024A0006564210D0A00000052544320496E69748E
:1024B00069616C204661696C212E2E2E0D0A000088
:1024C000000000201F1C1F1E1F1E1F1F1E1F1E1F7F
:1024D000000303060104060205000305FFFFFFFFDA
:1024E000FFFFFFFFFFFFFFFFFFFFFFC0FFFFFFFF3B
:1024F000FFFFFFFFFFFFFFFFFFFFFFC0FFFFFFFF2B
:10250000FFFFFFFFFFFFFFFFFFFFFFC0FFFFFFFF1A
:10251000FFFFFFFFFFFFFFFFFFFFFFC0FFFFFFFF0A
:10252000FFFFFFFFFFFFFFFFFFFFFFC0FFFFFFFFFA
:10253000FFFFFFFFFFFFFFFFFFFFFFC0FFFFFFFFEA
:10254000FFFFFFFFFFFFFFFFFFFFFFC0FFFFFFFFDA
:10255000FFFFFFFFFFFFFFFFFFFFFFC0FFFFFFFFCA
:10256000FFFFFFFFFFFFFFFFFFFFFFC0FFFFFFFFBA
:10257000FFFFFFFFFFFFFFFFFFFFFFC0FFFFFFFFAA
:10258000FFFFFFFFFFFFFFFFFFFFFFC0FFFFFFFF9A
:10259000FFFFFFFFFFFFFFFFFFFFFFC0FFFFFFFF8A
:1025A000FFFFFFFFFFFFFFFFFFFFFFC0FFFFFFFF7A
:1025B000FFFFFFFFFFFFFFFFFFFFFFC0FFFFFFFF6A
:1025C000FFFFFFFFFFFFFFFFFFFFFFC0FFFFFFFF5A
:1025D000FFFFFFFFFFFFFFFFFFFFFFC0FFFFFFFF4A
:1025E000FFFFFFFFFFFFFFFFFFFFFFC0FFFFFFFF3A
:1025F000FFFFFFFFFFFFFFFFFFFFFFC0FFFFFFFF2A
:10260000FFFFFFFFFFFFFFFFFFFFFFC0FFFFFFFF19
:10261000FFFFFFFFFFFFFFFFFFFFFFC0FFFFFFFF09
:10262000FFFFFFFFFFFFFFFFFFFFFFC0FFFFFFFFF9
:10263000FFFFFFFFFFFFFFFFFFFFFFC0FFFFFFFFE9
:10264000FFFFFFFFFFFFFFFFFFFFFFC0FFFFFFFFD9
:10265000FFFFFFFFFFFFFFFFFFFFFFC0FFFFFFFFC9
:10266000FFFFFFFFFFFFFFFFFFFFFFC0FFFFFFFFB9
:10267000FFFFFFFFFFFFFFFFFFFFFFC0FFFFFFFFA9
:10268000FFFFFFFFFFFFFFFFFFFFFFC0FFFFFFFF99
:10269000FFFFFFFFFFFFFFFFFFFFFFC0FFFFFFFF89
:1026A000FFFFFFFFFFFFFFFFFFFFFFC0FFFFFFFF79
:1026B000FFFFFFFFFFFFFFFFFFFFFFC0FFFFFFFF69
:1026C000FFFFFFFFFFFFFFFFFFFFFFC0FFFFFFFF59
:1026D000FFFFFFFFFFFFFFFFFFFFFFC0FFFFFFFF49
:1026E000FFFFFFFFFFFFFFFFFFFFFFC0FFFFFFFF39
:1026F000FFFFFFFFFFFFFFFFFFFFFFC0FFFFFFFF29
:10270000FFFFFFFFFFFFFFFFFFFFFFC0FFFFFFFF18
:10271000FFFFFFFFFFFFFFFFFFFFFFC0FFFFFFFF08
:10272000FFFFFFFFFFFFFFFFFFFFFFC0FFFFFFFFF8
:10273000FFFFFFFFFFFFFFFFFFFFFFC0FFFFFFFFE8
:10274000FFFFFFFFFFFFFFFFFFFFFFC0FFFFFFFFD8
:10275000FFFFFFFFFFFFFFFFFFFFFFC0FFFFFFFFC8
:10276000FFFFFFFFFFFFFFFFFFFFFFC0FFFFFFFFB8
:10277000FFFFFFFFFFFFFFFFFFFFFFC0FFFFFFFFA8
:10278000FFFFFFFFFFFFFFFFFFFFFFC0FFFFFFFF98
:10279000FFFFFFFFFFFFFFFFFFFFFFC0FFFFFFFF88
:1027A000FFFFFFFFFFFFFFFFFFFFFFC0FFFFFFFF78
:1027B000FFFFFFFFFFFFFFFFFFFFFFC0FFFFFFFF68
:1027C000FFFFFFFFFFFFFFFFFFFFFFC0FFFFFFFF58
:1027D000FFFFFFFFFFFFFFFFFFFFFFC0FFFFFFFF48
:1027E000FFFFFFFFFFFFFFFFFFFFFFC0FFFFFFFF38
:1027F000FFFFFFFFFFFFFFFFFFFFFFC0FFFFFFFF28
:10280000FFFFFFFFFFFFFFFFFFFFFFC0FFFFFFFF17
:10281000FFFFFFFFFFFFFFFFFFFFFFC0FFFFFFFF07
:10282000FFFFFFFFFFFFFFFFFFFFFFC0FFFFFFFFF7
:10283000FFFFFFFFFFFFFFFFFFFFFFC0FFFFFFFFE7
:10284000FFFFFFFFFFFFFFFFFFFFFFC0FFFFFFFFD7
:10285000FFFFFFFFFFFFFFFFFFFFFFC0FFFFFFFFC7
:10286000FFFFFFFFFFFFFFFFFFFFFFC0FFFFFFFFB7
:10287000FFFFFFFFFFFFFFFFFFFFFFC0FFFFFFFFA7
:10288000FFFFFFFFFFFFFFFFFFFFFFC0FFFFFFFF97
:10289000FFFFFFFFFFFFFFFFFFFFFFC0FFFFFFFF87
:1028A000FFFFFFFFFFFFFFFFFFFFFFC0FFFFFFFF77
:1028B000FFFFFFFFFFFFFFFFFFFFFFC0FFFFFFFF67
:1028C000FFFFFFFFFFFFFFFFFFFFFFC0FFFFFFFF57
:1028D000FFFFFFFFFFFFFFFFFFFFFFC0FFFFFFFF47
:1028E000FFFFFFFFFFFFFFFFFFFFFFC0FFFFFFFF37
:1028F000FFFFFFFFFFFFFFFFFFFFFFC0FFFFFFFF27
:10290000FFFFFFFFFFFFFFFFFFFFFFC0FFFFFFFF16
:10291000FFFFFFFFFFFFFFFFFFFFFFC0FFFFFFFF06
:10292000FFFFFFFFFFFFFFFFFFFFFFC0FFFFFFFFF6
:10293000FFFFFFFFFFFFFFFFFFFFFFC0FFFFFFFFE6
:10294000FFFFFFFFFFFFFFFFFFFFFFC0FFFFFFFFD6
:10295000FFFFFFFFFFFFFFFFFFFFFFC0FFFFFFFFC6
:10296000FFFFFFFFFFFFFFFFFFFFFFC0FFFFFFFFB6
:10297000FFFFFFFFFFFFFFFFFFFFFFC0FFFFFFC0E5
:102980007FFFFFFFFFFFFFFFFFFFFFC0FFFFFEF026
:1029900000FFFFFFFFFFFFFFFFFFFFC0FFFFFFF094
:1029A000000FFFFFFFFFFFFFFFFFFFC0FFFFFDFF67
:1029B000C001FFFFFFFFFFFFFFFFFFC0FFFFF9F0B8
:1029C00007001FFFFFFFFFFFFFFFFFC0FFFFF8E053
:1029D000003003FFFFFFFFFFFFFFFFC0FFFFF00717
:1029E000000300FFFFFFFFFFFFFFFFC0FFFFF11F1E
:1029F000C000601FFFFFFFFFFFFFFFC0FFFFE03FC2
:102A0000E3800C07FFFFFFFFFFFFFFC0FFFFE23F78
:102A1000E7C00101FFFFFFFFFFFFFFC0FFFFE03F37
:102A2000E7C000407FFFFFFFFFFFFFC0FFFFC43F85
:102A3000E7C000181FFFFFFFFFFFFFC0FFFFC03F01
:102A4000E780000207FFFFFFFFFFFFC0FFFFC03F5F
:102A5000E000000081FFFFFFFFFFFFC0FFFF881FB6
:102A6000C0000000207FFFFFFFFFFFC0FFFF800FBF
:102A700080001F00081FFFFFFFFFFFC0FFFF8070E7
:102A8000000FE1FC020FFFFFFFFFFFC0FFFF10F888
:102A900000780A038103FFFFFFFFFFC0FFFF10F86C
:102AA00001C7FFF87041FFFFFFFFFFC0FFFF00F805
:102AB000063FC07F8C107FFFFFFFFFC0FFFF00F8C5
:102AC00019F87FC3E3083FFFFFFFFFC0FFFE202090
:102AD00063CFFFFC79820FFFFFFFFFC0FFFE2000E6
:102AE000CF3F001F9E6007FFFFFFFFC0FFFE0001FA
:102AF0003DF00001E73041FFFFFFFFC0FFFE000295
:102B000073C000007BD820FFFFFFFFC0FFFE400422
:102B1000EF0000001EE4087FFFFFFFC0FFFC40093C
:102B20009C0012000772041FFFFFFFC0FFFC401350
:102B30007000DA4003B9000FFFFFFFC0FFFC002662
:102B4000E002FFD801DD8087FFFFFFC0FFFC004DE2
:102B5000C01FFFFE006E8043FFFFFFC0FFFC00DBD5
:102B600080DFF1FFC0374021FFFFFFC0FFFC00BB4B
:102B700000FE000FD01B2000FFFFFFC0FFF88136D2
:102B800003F07FC3F01DA0003FFFFFC0FFF8816C82
:102B900003E3FFF8F40FD0023FFFFFC0FFF882FC11
:102BA0000F8FFFFE7C06D8011FFFFFC0FFF882D801
:102BB0000F3FFFFF1D03680087FFFFC0FFF885B0D0
:102BC0003E7FFFFF8F036C0047FFFFC0FFF805B09B
:102BD0001CFFFFFFC701B40023FFFFC0FFF80BE09D
:102BE000F9FFFFFFE7C1B40011FFFFC0FFF80B6062
:102BF00073FFFFFFF380F20000FFFFC0FFF80B60E0
:102C0000F3FFFFFFF9E0DA02007FFFC0FFF816C113
:102C1000E7FFFFFFF9E0DA0F843FFFC0FFF816C0BF
:102C2000E7FFFFFFFCC07A0F823FFFC0FFF816C32B
:102C3000CFFFFFFFFCF06D0F811FFFC0FFF8178172
:102C4000CFFFFFFFFEE06D0F800FFFC0FFF9178180
:102C5000CFFFFFFFFE706D070007FFC0FFF925875C
:102C6000DFFFFFFFFE782D00F847FFC0FFF92D833F
:102C70009FFFFFFFFF703D01FC23FFC0FFF92D8385
:102C80009FFFFFFFFF783D03FE3BFFC0FFF92D874D
:102C90009FFFFFFFFF783D03FF7DFFC0FFF12D8108
:102CA0009FFFFFFFFF703D03FF7FFFC0FFF92D83F4
:102CB0009FFFFFFFFF783D03FF7FFFC0FFF92D87D8
:102CC0009FFFFFFFFF783D03FE3DFFC0FFF92D8111
:102CD0009FFFFFFFFF703D01FE13FFC0FFF925833B
:102CE000DFFFFFFFFE782D00FC23FFC0FFF81783F6
:102CF000DFFFFFFFFE706D007007FFC0FFF8178158
:102D0000CFFFFFFFFE706D070007FFC0FFF916C180
:102D1000CFFFFFFFFCF86D0F808FFFC0FFF816C1DB
:102D2000E7FFFFFFFCC0790F811FFFC0FFF816C04F
:102D3000E7FFFFFFFDE0DA0F801FFFC0FFF80B6128
:102D4000F3FFFFFFF9E0DA07003FFFC0FFF80B6079
:102D500073FFFFFFF3C0DA00047FFFC0FFF80960D4
:102D600079FFFFFFE3C1B40008FFFFC0FFF805B023
:102D70001CFFFFFFE701B40011FFFFC0FFF805B023
:102D80001E7FFFFFCF036C0021FFFFC0FFF886D836
:102D90003F3FFFFF1C03680043FFFFC0FFF882FCBA
:102DA0000F8FFFFE3C06D80087FFFFC0FFF8836C43
:102DB0000FC3FFF8F20ED0000FFFFFC0FFFC8136FB
:102DC00001F07FC3F00DB0001FFFFFC0FFFC00B794
:102DD000037C000FC01B20087FFFFFC0FFFC00DB4F
:102DE000807FE0FFC0374010FFFFFFC0FFFC004DB9
:102DF000C01FFFFF006EC021FFFFFFC0FFFC0026C9
:102E0000E013FFF900CD8003FFFFFFC0FFFC401778
:102E100070025B4803B90107FFFFFFC0FFFC400BD6
:102E2000BC0000000772021FFFFFFFC0FFFC400C48
:102E3000CE0000001EE4003FFFFFFFC0FFFE0002C7
:102E40007780000079C8107FFFFFFFC0FFFE000100
:102E500039F00001F7B001FFFFFFFFC0FFFE2000C7
:102E6000CE7E001F9E6083FFFFFFFFC0FFFE20009D
:102E7000678FFFFE79820FFFFFFFFFC0FFFF00F0AB
:102E800019F8FFE3E3041FFFFFFFFFC0FFFF00F897
:102E9000067F803F8C107FFFFFFFFFC0FFFF00F821
:102EA0000187FFFC7000FFFFFFFFFFC0FFFF10F86E
:102EB00000703F83C083FFFFFFFFFFC0FFFF8070F4
:102EC000000F807E0207FFFFFFFFFFC0FFFF8007AC
:102ED00080007FC0081FFFFFFFFFFFC0FFFF881FAC
:102EE000C0000000207FFFFFFFFFFFC0FFFF801F2B
:102EF000E000000081FFFFFFFFFFFFC0FFFFC03FBA
:102F0000E380000303FFFFFFFFFFFFC0FFFFC43F9D
:102F1000F7C000080FFFFFFFFFFFFFC0FFFFE03F0C
:102F2000F7C000203FFFFFFFFFFFFFC0FFFFE23FB2
:102F3000E7C00080FFFFFFFFFFFFFFC0FFFFE03F94
:102F4000E3800203FFFFFFFFFFFFFFC0FFFFF11F52
:102F5000C000100FFFFFFFFFFFFFFFC0FFFFF007E4
:102F60008000407FFFFFFFFFFFFFFFC0FFFFF8E093
:102F7000000601FFFFFFFFFFFFFFFFC0FFFFF8F8A4
:102F800000700FFFFFFFFFFFFFFFFFC0FFFFFCF818
:102F900007003FFFFFFFFFFFFFFFFFC0FFFFFEFF38
:102FA000C001FFFFFFFFFFFFFFFFFFC0FFFFFEF8B5
:102FB000001FFFFFFFFFFFFFFFFFFFC0FFFFFFE05E
:102FC00001FFFFFFFFFFFFFFFFFFFFC0FFFFFFFF4E
:102FD000FFFFFFFFFFFFFFFFFFFFFFC0FFFFFFFF40
:102FE000FFFFFFFFFFFFFFFFFFFFFFC0FFFFFFFF30
:102FF000FFFFFFFFFFFFFFFFFFFFFFC0FFFFFFFF20
:10300000FFFFFFFFFFFFFFFFFFFFFFC0FFFFFFFF0F
:10301000FFFFFFFFFFFFFFFFFFFFFFC0FFFFFFFFFF
:10302000FFFFFFFFFFFFFFFFFFFFFFC0FFFFFFFFEF
:10303000FFFFFFFFFFFFFFFFFFFFFFC0FFFFFFFFDF
:10304000FFFFFFFFFFFFFFFFFFFFFFC0FFFFFFFFCF
:10305000FFFFFFFFFFFFFFFFFFFFFFC0FFFFFFFFBF
:10306000FFFFFFFFFFFFFFFFFFFFFFC0FFFFFFFFAF
:10307000FFFFFFFFFFFFFFFFFFFFFFC0FFFFFFFF9F
:10308000FFFFFFFFFFFFFFFFFFFFFFC0FFFFFFFF8F
:10309000FFFFFFFFFFFFFFFFFFFFFFC0FFFFFFFF7F
:1030A000FFFFFFFFFFFFFFFFFFFFFFC0FFFFFFFF6F
:1030B000FFFFFFFFFFFFFFFFFFFFFFC0FFFFFFFF5F
:1030C000FFFFFFFFFFFFFFFFFFFFFFC0FFFFFFFF4F
:1030D000FFFFFFFFFFFFFFFFFFFFFFC0FFFFFFFF3F
:1030E000FFFFFFFFFFFFFFFFFFFFFFC0FFFFFFFF2F
:1030F000FFFFFFFFFFFFFFFFFFFFFFC0FFFFFFFF1F
:10310000FFFFFFFFFFFFFFFFFFFFFFC0FFFFFFFF0E
:10311000FFFFFFFFFFFFFFFFFFFFFFC0FFFFFFFFFE
:10312000FFFFFFFFFFFFFFFFFFFFFFC0FFFFFFFFEE
:10313000FFFFFFFFFFFFFFFFFFFFFFC0FFFFFFFFDE
:10314000FFFFFFFFFFFFFFFFFFFFFFC0FFFFFFFFCE
:10315000FFFFFFFFFFFFFFFFFFFFFFC0FFFFFFFFBE
:10316000FFFFFFFFFFFFFFFFFFFFFFC0FFFFFFFFAE
:10317000FFFFFFFFFFFFFFFFFFFFFFC0FFFFFFFF9E
:10318000FFFFFFFFFFFFFFFFFFFFFFC0FFFFFFFF8E
:10319000FFFFFFFFFFFFFFFFFFFFFFC0FFFFFFFF7E
:1031A000FFFFFFFFFFFFFFFFFFFFFFC0FFFFFFFF6E
:1031B000FFFFFFFFFFFFFFFFFFFFFFC0FFFFFFFF5E
:1031C000FFFFFFFFFFFFFFFFFFFFFFC0FFFFFFFF4E
:1031D000FFFFFFFFFFFFFFFFFFFFFFC0FFFFFFFF3E
:1031E000FFFFFFFFFFFFFFFFFFFFFFC0FFFFFFFF2E
:1031F000FFFFFFFFFFFFFFFFFFFFFFC0FFFFFFFF1E
:10320000FFFFFFFFFFFFFFFFFFFFFFC0FFFFFFFF0D
:10321000FFFFFFFFFFFFFFFFFFFFFFC0FFFFFFFFFD
:10322000FFFFFFFFFFFFFFFFFFFFFFC0FFFFFFFFED
:10323000FFFFFFFFFFFFFFFFFFFFFFC0FFFFFFFFDD
:10324000FFFFFFFFFFFFFFFFFFFFFFC0FFFFFFFFCD
:10325000FFFFFFFFFFFFFFFFFFFFFFC0FFFFFFFFBD
:10326000FFFFFFFFFFFFFFFFFFFFFFC0FFFFFFFFAD
:10327000FFFFFFFFFFFFFFFFFFFFFFC0FFFFFFFF9D
:10328000FFFFFFFFFFFFFFFFFFFFFFC0FFFFFFFF8D
:10329000FFFFFFFFFFFFFFFFFFFFFFC0FFFFFFFF7D
:1032A000FFFFFFFFFFFFFFFFFFFFFFC0FFFFFFFF6D
:1032B000FFFFFFFFFFFFFFFFFFFFFFC0FFFFFFFF5D
:1032C000FFFFFFFFFFFFFFFFFFFFFFC0FFFFFFFF4D
:1032D000FFFFFFFFFFFFFFFFFFFFFFC0FFFFFFFF3D
:1032E000FFFFFFFFFFFFFFFFFFFFFFC0FFFFFFFF2D
:1032F000FFFFFFFFFFFFFFFFFFFFFFC0FFFFFFFF1D
:10330000FFFFFFFFFFFFFFFFFFFFFFC0FFFFFFFF0C
:10331000FFFFFFFFFFFFFFFFFFFFFFC0FFFFFFFFFC
:10332000FFFFFFFFFFFFFFFFFFFFFFC0FFFFFFFFEC
:10333000FFFFFFFFFFFFFFFFFFFFFFC0FFFFFFFFDC
:10334000FFFFFFFFFFFFFFFFFFFFFFC0FFFFFFFFCC
:10335000FFFFFFFFFFFFFFFFFFFFFFC0FFFFFFFFBC
:10336000FFFFFFFFFFFFFFFFFFFFFFC0FFFFFFFFAC
:10337000FFFFFFFFFFFFFFFFFFFFFFC0FFFFFFFF9C
:10338000FFFFFFFFFFFFFFFFFFFFFFC0FFFFFFFF8C
:10339000FFFFFFFFFFFFFFFFFFFFFFC0FFFFFFFF7C
:1033A000FFFFFFFFFFFFFFFFFFFFFFC0FFFFFFFF6C
:1033B000FFFFFFFFFFFFFFFFFFFFFFC0FFFFFFFF5C
:1033C000FFFFFFFFFFFFFFFFFFFFFFC0FFFFFFFF4C
:1033D000FFFFFFFFFFFFFFFFFFFFFFC0FFFFFFFF3C
:1033E000FFFFFFFFFFFFFFFFFFFFFFC0FFFFFFFF2C
:1033F000FFFFFFFFFFFFFFFFFFFFFFC0FFFFFFFF1C
:10340000FFFFFFFFFFFFFFFFFFFFFFC0FFFFFFFF0B
:10341000FFFFFFFFFFFFFFFFFFFFFFC0FFFFFFFFFB
:10342000FFFFFFFFFFFFFFFFFFFFFFC0FFFFFFFFEB
:10343000FFFFFFFFFFFFFFFFFFFFFFC0FFFFFFFFDB
:10344000FFFFFFFFFFFFFFFFFFFFFFC0FFFFFFFFCB
:10345000FFFFFFFFFFFFFFFFFFFFFFC0FFFFFFFFBB
:10346000FFFFFFFFFFFFFFFFFFFFFFC0FFFFFFFFAB
:10347000FFFFFFFFFFFFFFFFFFFFFFC02255AA5521
:10348000AA55AA1100000000000000001E1E1E1E0A
:103490001E1E1E1E0100000000001800000000009B
:1034A000000000000000000000000F01000000000C
:1034B000000000000000000000000000000000000C
:1034C00000000000000000000000000000000000FC
:1034D00000000000000000000000000000000000EC
:1034E00000000000000000000000000000000000DC
:1034F00000000000000000000000000000000000CC
:1035000000000000000000000000000000000000BB
:1035100000000000000000000000000000000000AB
:10352000000000000000000000000000000000009B
:10353000000000000000000000000000000000008B
:10354000000000000000000000000000000000007B
:10355000000000000000000000000000000000006B
:10356000000000000000000000000000000000005B
:10357000000000000000000000000000000000004B
:10358000000000000000000000000000000000003B
:10359000000000000000000000000000000000002B
:1035A000000000000000000000000000000000001B
:1035B000000000000000000000001FF81FF81FF8C6
:1035C0001FF81FF81FF81FF81FF81FF81FF81FF843
:1035D0001FF81FF81FF81FF81FF81FF81FF81FF833
:1035E0001FF81FF81FF81FF81FF80FF80000000061
:1035F000000000001FF81FF81FF81FF81FF81FF841
:1036000000000000000000000000000000000000BA
:1036100000000000000000000000000000000000AA
:10362000000000000000000000000000000000009A
:10363000000000000000000000000000000000008A
:10364000000000000000000000000000000000007A
:10365000000000000000000000000000000000006A
:10366000000000000000000000000000000000005A
:10367000000000000000000000000000000000004A
:10368000000000000000000000000000000000003A
:10369000000000000000000000000000000000002A
:1036A0000000000000000000000000003FEFF83FB5
:1036B000EFF83FEFF83FEFF81FEFF01FEFF01FEFCD
:1036C000F01FC7F01FC7F01FC7F01FC7F01FC7F0DC
:1036D0001FC7F01FC7F0000000000000000000003E
:1036E00000000000000000000000000000000000DA
:1036F00000000000000000000000000000000000CA
:1037000000000000000000000000000000000000B9
:1037100000000000000000000000000000000000A9
:103720000000000000000000000000000000000099
:103730000000000000000000000000000000000089
:103740000000000000000000000000000000000079
:103750000000000000000000000000000000000069
:103760000000000000000000000000000000000059
:103770000000000000000000000000000000000049
:103780000000000000000000000000000000000039
:103790000000000000000000001F8FC0001F8F808D
:1037A000001F1F80003F1F80003F1F80003F1F0041
:1037B0000FFFFFF80FFFFFF80FFFFFF80FFFFFF8F5
:1037C000007C7E0000FC7E0000FC7C0000FC7C0095
:1037D00000F8FC0001F8FC007FFFFFC07FFFFFC086
:1037E0007FFFFFC07FFFFFC003F1F00003F1F00097
:1037F00003E3F00007E3F00007E3E00007E3E00085
:1038000007C7E0000000000000000000000000000A
:1038100000000000000000000000000000000000A8
:103820000000000000000000000000000000000098
:103830000000000000000000000000000000000088
:103840000000000000000000000000000000000078
:103850000000000000000000000000000000000068
:103860000000000000000000000000000000000058
:103870000000000000000000000000000000000048
:10388000000000000007C0000007C0000007C000E3
:103890000007C0000007C000007FFF0001FFFFE03D
:1038A00007FFFFE00FFFFFE01FFFFFE01FFFFFE04C
:1038B0003FFFFFE03FF7C3E03FE7C0E03FE7C00066
:1038C0003FF7C0003FFFC0003FFFF0001FFFFF00B9
:1038D0001FFFFFC00FFFFFE007FFFFF001FFFFF832
:1038E000003FFFF80007FFFC0007DFFC0007CFFCEC
:1038F0000007CFFC3C07CFFC3F07CFF83FF7FFF8AE
:103900003FFFFFF03FFFFFF03FFFFFE03FFFFFC043
:103910001FFFFF0001FFFC000007C0000007C00000
:103920000007C0000007C0000007C0000007C0007B
:103930000007C0000007C0000000000000000000F9
:103940000000000000000000000000000000000077
:103950000000000000000000000000001FE03E002A
:103960003FF03E007FF87C007FF87C007CF8F80098
:103970007CF8F8007CF9F0007CF9F7F87CFBEFFCB0
:103980007FFBFFFE7FFFDFFE3FF7DF3E1FEF9F3E27
:10399000000F9F3E001F1F3E001F1F3E003E1FFEE8
:1039A000003E1FFE007C0FFC007C07F800000000BA
:1039B0000000000000000000000000000000000007
:1039C00000000000000000000000000000000000F7
:1039D00000000000000000000000000000000000E7
:1039E00000000000000000000000000000000000D7
:104360000000000000000000003FF80001FFFF0017
:1043700003FFFF8007FFFFC00FFFFFE00FFFFFE01D
:104380001FFEFFF01FF83FF03FF83FF83FF01FF827
:104390003FF01FF83FF01FF83FF01FF87FF01FFCC1
:1043A0007FF01FFC7FF01FFC7FE00FFC7FE00FFC25
:1043B0007FE00FFC7FE00FFC7FE00FFC7FF01FFC35
:1043C0007FF01FFC7FF01FFC3FF01FF83FF01FF84D
:1043D0003FF01FF83FF01FF83FF83FF81FF83FF09D
:1043E0001FFEFFF00FFFFFE00FFFFFE007FFFFC022
:1043F00003FFFF8001FFFF00003FF8000000000006
:1044000000000000000000000000000000000000AC
:10441000000000000000000000000000000000009C
:10442000000000000000000000000000000000008C
:10443000000000000000000000000000000000007C
:10444000000000000000000000000000000000006C
:1044500000000000000FF800000FF800001FF80037
:10446000003FF80001FFF8000FFFF8000FFFF80011
:104470000FFFF8000FFFF8000FFFF8000FFFF80024
:10448000001FF800001FF800001FF800001FF800D0
:10449000001FF800001FF800001FF800001FF800C0
:1044A000001FF800001FF800001FF800001FF800B0
:1044B000001FF800001FF800001FF800001FF800A0
:1044C000001FF800001FF8000FFFFFF80FFFFFF8B4
:1044D0000FFFFFF80FFFFFF80FFFFFF80FFFFFF8C8
:1044E00000000000000000000000000000000000CC
:1044F00000000000000000000000000000000000BC
:1045000000000000000000000000000000000000AB
:10451000000000000000000000000000000000009B
:10452000000000000000000000000000000000008B
:10453000000000000000000000FFF80007FFFF007F
:104540000FFFFF800FFFFFC00FFFFFE00FFFFFF027
:104550000FFFFFF00FF1FFF00F807FF80E003FF824
:1045600000003FF800003FF800003FF800003FF86F
:1045700000003FF000003FF000007FF000007FE00F
:104580000000FFE00001FFC00003FF800007FF0004
:10459000000FFF00001FFE00003FFC00007FF8003E
:1045A00000FFF00001FFC00003FF80000FFF0000CC
:1045B0001FFFFFFC1FFFFFFC1FFFFFFC1FFFFFFC97
:1045C0001FFFFFFC1FFFFFFC0000000000000000B9
:1045D00000000000000000000000000000000000DB
:1045E00000000000000000000000000000000000CB
:1045F00000000000000000000000000000000000BB
:1046000000000000000000000000000000000000AA
:10461000000000000000000000000000000000009A
:1046200000FFF8000FFFFF001FFFFFC01FFFFFE0AC
:104630001FFFFFE01FFFFFF01FFFFFF01FF1FFF064
:104640001F007FF01C003FF800003FF000003FF02B
:1046500000003FF000007FE00003FFE0007FFFC0AC
:10466000007FFF80007FFE00007FFF80007FFFE073
:10467000007FFFF00001FFF000003FF800001FF88E
:1046800000001FF800001FF800001FF838001FF896
:104690003E003FF83FE3FFF83FFFFFF03FFFFFF032
:1046A0003FFFFFE03FFFFFC03FFFFF801FFFFE0017
:1046B00003FFF80000000000000000000000000000
:1046C00000000000000000000000000000000000EA
:1046D00000000000000000000000000000000000DA
:1046E00000000000000000000000000000000000CA
:1046F00000000000000000000000000000000000BA
:104700000000000000000000000000000001FFC0E9
:104710000001FFC00003FFC00007FFC0000FFFC083
:10472000000FFFC0001FFFC0003FFFC0007FFFC0A1
:10473000007FFFC000FFFFC001FEFFC003FEFFC0FF
:1047400003FCFFC007F8FFC00FF0FFC01FF0FFC061
:104750001FE0FFC03FC0FFC07F80FFC07F80FFC061
:10476000FFFFFFFEFFFFFFFEFFFFFFFEFFFFFFFE5D
:10477000FFFFFFFEFFFFFFFE0000FFC00000FFC0C5
:104780000000FFC00000FFC00000FFC00000FFC02D
:104790000000FFC00000FFC000000000000000009B
:1047A0000000000000000000000000000000000009
:1047B00000000000000000000000000000000000F9
:1047C00000000000000000000000000000000000E9
:1047D00000000000000000000000000000000000D9
:1047E00000000000000000000000000000000000C9
:1047F000000000000FFFFFF80FFFFFF80FFFFFF8AA
:104800000FFFFFF80FFFFFF80FFFFFF80FF8000092
:104810000FF800000FF800000FF800000FF800007C
:104820000FF800000FFFFC000FFFFF000FFFFFC09D
:104830000FFFFFE00FFFFFF00FFFFFF00FC3FFF8C8
:1048400000007FF800003FF800001FF800001FF88C
:1048500000001FF800001FF800001FF83C003FF8A0
:104860003F007FF83FE3FFF03FFFFFF03FFFFFE037
:104870003FFFFFE03FFFFFC03FFFFF801FFFFE0045
:1048800001FFF80000000000000000000000000030
:104890000000000000000000000000000000000018
:1048A0000000000000000000000000000000000008
:1048B00000000000000000000000000000000000F8
:1048C00000000000000000000000000000000000E8
:1048D00000000000000000000003FFE0001FFFE0F8
:1048E000007FFFE000FFFFE001FFFFE003FFFFE0CC
:1048F00007FFE3E007FF00000FFE00000FFC0000D1
:104900001FF800001FF800001FF800003FF3FF0031
:104910003FFFFFC03FFFFFE03FFFFFF03FFFFFF023
:104920003FFFFFF83FFCFFF83FF03FFC3FF01FFC6C
:104930003FF00FFC3FF00FFC3FF00FFC3FF00FFC8F
:104940003FF00FFC1FF80FFC1FF81FFC1FFC3FF887
:104950000FFE7FF80FFFFFF007FFFFE003FFFFE010
:1049600001FFFFC000FFFF00003FFC00000000004F
:104970000000000000000000000000000000000037
:104980000000000000000000000000000000000027
:104990000000000000000000000000000000000017
:1049A0000000000000000000000000000000000007
:1049B00000000000000000000000000000000000F7
:1049C000000000003FFFFFFC3FFFFFFC3FFFFFFC3C
:1049D0003FFFFFFC3FFFFFFC3FFFFFFC00001FFC11
:1049E00000003FF800003FF000007FF000007FE093
:1049F0000000FFE00001FFC00001FFC00003FF80D6
:104A00000003FF800007FF000007FF00000FFE000B
:104A1000000FFE00001FFC00001FFC00003FF8001C
:104A2000007FF000007FF00000FFE00000FFE000EA
:104A300001FFC00001FFC00003FF800003FF8000F2
:104A400007FF00000FFF00000FFE00001FFE000028
:104A50000000000000000000000000000000000056
:104A60000000000000000000000000000000000046
:104A70000000000000000000000000000000000036
:104A80000000000000000000000000000000000026
:104A90000000000000000000000000000000000016
:104AA0000000000000000000003FFC0001FFFF804C
:104AB00007FFFFC00FFFFFE00FFFFFF01FFFFFF832
:104AC0003FFC7FF83FF83FF83FF01FF83FF01FF83A
:104AD0003FF01FF83FF81FF83FFC1FF01FFF3FF0AB
:104AE0001FFFFFE00FFFFFC007FFFF8003FFFF80F6
:104AF00003FFFFC007FFFFF01FFFFFF01FF1FFF8EC
:104B00003FF07FFC7FE01FFC7FE00FFC7FE00FFCAD
:104B10007FE00FFC7FE00FFC7FF00FFC7FF81FFCB5
:104B20003FFE7FF83FFFFFF81FFFFFF00FFFFFE0A2
:104B300007FFFFC003FFFF00007FFC000000000034
:104B40000000000000000000000000000000000065
:104B50000000000000000000000000000000000055
:104B60000000000000000000000000000000000045
:104B70000000000000000000000000000000000035
:104B80000000000000000000000000000000000025
:104B9000007FF80001FFFE0003FFFF0007FFFF801A
:104BA0000FFFFFC01FFFFFE03FFCFFE03FF87FF07B
:104BB0003FF03FF07FF03FF87FE01FF87FE01FF805
:104BC0007FE01FF87FE01FF87FE01FF87FF01FF8FD
:104BD0007FF81FF83FFE7FF83FFFFFF81FFFFFF849
:104BE0001FFFFFF80FFFFFF807FFFFF801FF9FF817
:104BF00000003FF000003FF000003FF000007FE0C9
:104C00000000FFE00001FFC00F8FFFC00FFFFF801B
:104C10000FFFFF000FFFFE000FFFFC000FFFF00073
:104C20000FFF8000000000000000000000000000F6
:104C30000000000000000000000000000000000074
:104C40000000000000000000040000080000000058
:104C50000000000200010000100000007C4C000871
:104C6000000000206400000028010008E04C00085B
:104C7000640000200421000044010008000000003E
:104C80000000A00F00000000020406080000000061
:104C900001020304010203040607080900A24A04F2
:104CA00000000000000000000102030406070809DC
:104CB00000000000000000000000000000000000F4
:104CC00000000000000000000000000000000000E4
:104CD0000000FFFFFFFF0000B834000820003A008A
:04000005080000ED02
:00000001FF
