:020000040800F2
:10000000802100209901000899120008EF100008D3
:1000100097120008DF070008A5290008000000006B
:100020000000000000000000000000003F25000864
:100030008D08000800000000411F00085D26000830
:10004000B3010008B3010008B30100082D22000825
:10005000B3010008B3010008B3010008B3010008B0
:10006000B3010008B3010008B3010008B3010008A0
:10007000B3010008B3010008B3010008B301000890
:10008000B3010008B3010008B3010008B301000880
:10009000B3010008B3010008B3010008B301000870
:1000A000B3010008B3010008B3010008BD26000831
:1000B000B3010008F1260008B3010008B3010008ED
:1000C000B3010008B3010008B3010008B301000840
:1000D000B301000865270008B3010008B301000858
:1000E000B3010008B3010008B301000800F002F8F2
:1000F00000F043F80AA090E8000C82448344AAF17F
:100100000107DA4501D100F038F8AFF2090EBAE87C
:100110000F0013F0010F18BFFB1A43F0010318473B
:10012000CC6B0000EC6B0000103A24BF78C878C19B
:10013000FAD8520724BF30C830C144BF04680C60ED
:10014000704700000023002400250026103A28BF35
:1001500078C1FBD8520728BF30C148BF0B60704739
:10016000642900F09D80002070471FB59DE80300C2
:1001700000F0DEF91FBD10B510BD00F0BCFA11464D
:10018000FFF7F3FF02F024FC00F0DAFA03B4FFF704
:10019000F2FF03BC02F00EFC094880470948004703
:1001A000FEE7FEE7FEE7FEE7FEE7FEE7FEE7FEE727
:1001B000FEE7FEE704480549054A064B7047000084
:1001C0006D260008ED00000880010020802100203D
:1001D0008011002080110020704770B5064600F0A5
:1001E0008BF9056806F10B0020F00704B4429CBFB0
:1001F000002070BD2B466A68BAB11068A04210D3C7
:1002000004F1080188423CBF5068586007D3516828
:10021000101941601168091B016058601460101DBD
:1002200070BD13465268002AE7D12146284600F0E7
:100230006BF90028DED170BD70B50446051F00F0D3
:100240005BF90068002C14BF446870BD002C18BF17
:10025000AC423CBF20466468F8D301680A18AA4241
:1002600018BF456003D12A6805461144016028681B
:100270004119A1421CBF6C6070BD61686960216852
:100280000844286070BD00000FB4044910B503AAEB
:10029000029800F0F5F910BC5DF814FB3C0000205A
:1002A0002DE9F0410646002410687529314616A54F
:1002B00010D0AFF30080002802DA404213A507E017
:1002C00031688A0701D512A502E0490704D511A5B6
:1002D000012401E0AFF3008000210A2206F1240787
:1002E00009E0B0FBF2FCB0FBF2F302FB1C00303083
:1002F00078541846491C0028F3D123462A46304634
:10030000BDE8F04100F04AB9000000002D000000F7
:100310002B000000200000002DE9F05F8946044614
:100320004FF0000ADFF874B1FB44C0F820A020466B
:10033000E1688847002874D0252806D0D4E9012137
:100340009047206A401C2062F1E700265F46204665
:10035000E16888472028054607DB312D05D278194A
:1003600010F8200C08B10643F1E7B00701D526F0DC
:100370000406C4F81CA00027C4F818A02A2D09D030
:10038000284602F010FB38B304EB8708303DC8F86C
:10039000185019E059F8041B204604EB87029161BC
:1003A000E1688847012F054618D1E069002820DA66
:1003B00026F020061DE0D8F8180000EB800005EBC1
:1003C00040003038C8F818002046E16888470546E4
:1003D00002F0E9FA0028EED1012F0AD02E2D08D123
:1003E0002046E16888477F1C0546022F46F020061C
:1003F000C4DBA069002803DA404246F00106A06190
:10040000F00701D026F010066C2D0BD0682D09D016
:100410004C2D39D06A2D35D0742D35D07A2D33D06E
:1004200016E038E0E1682F4620468847B842054686
:1004300009D16C2F26D04FF48060E1680643204636
:100440008847054604E06C2F1AD04FF480700643AD
:100450000DB3A5F14100192802D8203546F40066F5
:100460004A462946204626604E46FFF779FE80B16F
:1004700001280BD0F61D26F0070000F1080956E709
:100480004020E4E78020D8E70020D6E706F1040901
:100490004DE7284652E7206ABDE8F09F2469000036
:1004A0004FF0000200B5134694469646203922BF0D
:1004B000A0E80C50A0E80C50B1F12001BFF4F7AF58
:1004C000090728BFA0E80C5048BF0CC05DF804EB3A
:1004D000890028BF40F8042B08BF704748BF20F8A8
:1004E000022B11F0804F18BF00F8012B70477047A6
:1004F000704770477047000000487047280100208F
:10050000704770477047704738B504460A46002068
:100510006946AFF30080002808BF38BD0246009945
:10052000204600F0C3F8012038BD012000F0DCB8FF
:10053000F8B5AFF30080054600200C46102000BF40
:100540000646A819A0420DD9324669460020AFF3ED
:100550000080070008BF00F0C7F80098A04218BF4D
:100560000546C419FFF7C8FF05600746F01D20F0D7
:1005700007004619284600F00AF8B44208BFF8BD43
:10058000A21B31463868BDE8F84000F08FB8002162
:100590000160C0E901107047102070472DE9F04755
:1005A0000D4699469246044600F1240801688806E3
:1005B00004D5E06921F01001216000E00120A8428B
:1005C00001DD471B00E00027A1697A1902EB090051
:1005D000081AA0612078C00602D42046AFF300803C
:1005E000002608E0D4E901211AF806009047206AA5
:1005F000401C761C20624E45F4DB2078C0060AD5EC
:100600002046AFF3008006E0D4E901213020904776
:10061000206A401C2062381EA7F10107F4DC07E0C5
:10062000D4E9012118F805009047206A401C206297
:10063000281EA5F10105F3DC2046AFF300802078E9
:10064000000602D50220BDE8F0870120FBE700008C
:1006500001694A1C02610878704700B58FB0CDE986
:1006600001310021059105497944CDE90310114676
:100670006846FFF751FE0FB000BD0000E5FFFFFF29
:10068000074B70B50D467B44FFF7E7FF044628464D
:1006900000F026F810B14FF0FF3070BD204670BD5D
:1006A0002F230000004870472001002003464068C7
:1006B0008C46002818BF88423CBF03464068F8D3E8
:1006C00018681844884207D00CF1030020F0070096
:1006D000001D411A521A0146081D0A60FFF7ACBD01
:1006E000007B00F08000704710B500F037F8BDE8DF
:1006F000104000F02EB87546FFF7D4FFAE46050057
:100700006946534620F00700854618B020B5FFF72C
:1007100051FDBDE820404FF000064FF000074FF0BC
:1007200000084FF0000B21F00701AC46ACE8C0090F
:10073000ACE8C009ACE8C009ACE8C0098D46704718
:1007400010B50446AFF300802046BDE81040FFF727
:100750001DBD002801D002F02DB9704710B5012849
:1007600005D0002103A000F021F8012010BD09A14F
:10077000F8E7000053494752544D454D3A204F7514
:1007800074206F662068656170206D656D6F727989
:10079000000000003A2048656170206D656D6F7241
:1007A0007920636F727275707465640070B5054668
:1007B0000C460A2000E06D1C02F0FDF835B12878E7
:1007C0000028F8D102E0641C02F0F5F814B120789A
:1007D0000028F8D1BDE870400A2002F0ECB8FEE72E
:1007E00010B5094C00220421204600F07BFC0022B9
:1007F0001021204600F076FC20460022BDE8104083
:10080000022100F06FBC00000008014010B5094C47
:1008100000220421204600F065FC00221021204621
:1008200000F060FC01220221204600F05BFC002069
:1008300010BD00000008014001F028BE30B564245E
:10084000B0FBF4F3B0FBF4F5DBB204FB1500132BA3
:1008500001D96430C0B200EB90040723B4FBF3F578
:1008600003FB1544084D22440D44800715F8015C34
:100870002A4492B203D1032901D2521E92B2B2FB92
:10088000F3F003FB102030BD582A000870474FF4E6
:100890007A714843AFF3008070B54FF0E024002236
:1008A00065690949A36909784843A1699942FCD05F
:1008B00002D2A3EB010302E0A5EB010633441A4484
:1008C0000B468242F1D370BD4000002038B50121B3
:1008D000042001F05BFB1620ADF8000010208DF81D
:1008E00003000F4D03248DF802406946284600F0AE
:1008F000A1FB0820ADF8000004208DF803008DF85E
:1009000002406946284600F095FB06480121C0F8E0
:1009100084110021C0F88811C0F88C1138BD000086
:10092000000801400000214210B501F06BFDBDE858
:10093000104001F07DBD2DE9F041FA27002110267D
:100940003B467A22084600F053F900242146002055
:1009500000F038F9242000F001F90025FF2000F014
:1009600017F96D1CADB2B542F8D3641CA4B2BC42F9
:10097000ECD3BDE8F04100F068B900002DE9F04784
:1009800081464FF0FA080021102743467A22084694
:1009900000F02EF900242146002000F013F9242055
:1009A00000F0DCF8002504FB07F600BF09EB0500AA
:1009B000305C00F0EDF86D1CADB2BD42F6D3641CA6
:1009C000A4B24445E7D3BDE8F04700F03EB90000CB
:1009D00070B5384D044601220221284600F082FB02
:1009E000C820FFF754FF00220221284600F07AFBBE
:1009F0000A20FFF74CFF01220221284600F072FB7B
:100A0000C820FFF744FF012000F0A8F8F92000F00B
:100A1000BFF8002000F0BCF8002000F0B9F80C206E
:100A200000F09CF8D72000F0B3F8D62000F0B0F822
:100A30009D2000F0ADF82C2000F090F8A82000F0E8
:100A4000A7F83A2000F08AF81A2000F0A1F83B201D
:100A500000F084F8082000F09BF83C2000F07EF8BD
:100A6000032000F095F8112000F078F8032000F042
:100A70008FF8322000F072F834B1012C0ED0BDE8AE
:100A800070400DA0FFF700BC1A4D0024285D00F057
:100A90007FF8641CA4B21E2CF8D370BD154D002441
:100AA0001E35285D00F074F8641CA4B21E2CF8D327
:100AB00070BD00000008014044656275673A20651A
:100AC00072726F722C20746865204D6F64652069A6
:100AD00073204550445F32494E31335F46554C4C8C
:100AE000206F72204550445F32494E31335F504190
:100AF00052540000146C000810B509A0FFF7C4FBA5
:100B00000D4C02E06420FFF7C2FE0821204600F0F1
:100B1000E2FA0128F6D0BDE8104008A0FFF7B4BB08
:100B200044656275673A20652D5061706572206278
:100B30007573790D0A000000000801404465627574
:100B4000673A20652D506170657220627573792057
:100B500072656C656173650D0A00000070B50B4C21
:100B6000054600220421204600F0BCFA0022102194
:100B7000204600F0B7FA2846FFF75EFE2046BDE8A3
:100B800070400122102100F0ADBA000000080140C1
:100B900070B50B4C054601220421204600F0A2FA54
:100BA00000221021204600F09DFA2846FFF744FE5F
:100BB0002046BDE870400122102100F093BA0000E9
:100BC0000008014070B505460C464E20FFF7C6FFF1
:100BD000C5F3C700FFF7DCFF4F20FFF7BFFFE0B210
:100BE000FFF7D6FFC4F30720BDE87040FFF7D0BF82
:100BF0002DE9F04107461C4616460D464420FFF7F6
:100C0000ADFFC7F3C700FFF7C3FFC6F3C700FFF789
:100C1000BFFF4520FFF7A2FFE8B2FFF7B9FFC5F31A
:100C20000720FFF7B5FFE0B2FFF7B2FFC4F30720DC
:100C3000BDE8F041FFF7ACBF10B51020FFF78EFF05
:100C4000BDE810400120FFF7A3BF10B52220FFF739
:100C500085FFC420FFF79CFF2020FFF77FFFFF20C8
:100C6000FFF77CFFBDE81040FFF746BF2DE9F043DA
:100C700085B0A0A0FFF708FBFFF7C8FD0020FFF735
:100C8000A7FEFFF758FE4FF4FA794846FFF7FFFD3D
:100C90004FF47A60FFF7A1FA5FEA00087ED09BA0CC
:100CA000FFF7F2FAFF264FF48773FA227A214046C3
:100CB000009601F0A5F89AA0FFF7E6FA404601F089
:100CC000BDF8FF2000F026FB9B4800F057FB404694
:100CD000FFF754FE4FF4FA673846FFF7D8FD97A0A8
:100CE000FFF7D2FA404601F0A9F8FF2000F012FB0E
:100CF0000124234600220A210520009400F0D0FDA3
:100D00000223002219210520009400F0C9FD0323CD
:100D1000002228210520009400F0C2FD04230022B7
:100D200037210520009400F0BBFD0025CDE90054DB
:100D30003C2346220A211420029500F0BFFCCDE995
:100D400000543C2314220A214620029500F0B6FCF0
:100D5000CDE900543C2346220A211420029500F0DC
:100D600041FECDE900543C2387220A2155200294FC
:100D700000F038FECDE900542D2237230F21104614
:100D8000029400F09BFCCDE900542323462219462F
:100D90001920029400F092FC002300E051E014229C
:100DA00023212D20CDE9004500F07AFB0094FF239C
:100DB000142223216E20019400F072FBCDE900562D
:100DC000614B62A20F218C2000F046FFCDE9005656
:100DD0005D4B614A28218C2000F0F8FCCDE90056DB
:100DE0005E4B5FA23C218C2000F06CFECDE90065DB
:100DF0005D4B5EA24121052000F064FE4046FFF7F6
:100E0000BDFD3846FFF743FD5BA0FFF73DFA01202B
:100E1000FFF7DEFD404601F011F80C208DF81000C0
:100E200022208DF811003820584F8DF8120014241C
:100E30009DF81200401CC0B28DF812003C2808D06A
:100E400021E053A0FFF720FA4FF0FF3005B0BDE8D6
:100E5000F0839DF81100401CC0B28DF811008DF890
:100E600012503C280FD19DF81000401CC0B28DF8E4
:100E700010008DF81150182805D18DF810508DF8FC
:100E800011508DF812500096F8885A215A3083B2CA
:100E9000B888C0EBC0008C3082B28C2000F054FACD
:100EA000CDE90065394B03AA5A218C2000F012FFCE
:100EB000641E14F0FF0406D04046FFF75FFD48466D
:100EC000FFF7E5FCB4E73CA0FFF7DEF90020FFF7F1
:100ED0007FFDFFF730FD3BA0FFF7D6F9FFF7ACFE33
:100EE0004046FFF7A9F93BA0FFF7CEF9FFF778FCE2
:100EF0000020ABE74550445F32494E31335F7465A3
:100F000073742044656D6F0D0A0000005061696EB6
:100F1000745F4E6577496D6167650D0A00000000DA
:100F200073686F7720696D61676520666F722061F5
:100F3000727261790D0A0000642A000844726177B8
:100F4000696E670D0A000000540000207761766525
:100F5000736861726500000015CD5B075C000020BE
:100F6000C4E3BAC36162630070000020CEA2D1A9BD
:100F7000B5E7D7D3000000005061727469616C203E
:100F8000726566726573680D0A00000068000020D3
:100F90004661696C656420746F206170706C7920A3
:100FA000666F7220626C61636B206D656D6F727924
:100FB0002E2E2E0D0A000000436C6561722E2E2E1F
:100FC0000D0A0000476F746F20536C6565702E2EFC
:100FD0002E0D0A00636C6F73652035562C204D6F03
:100FE00064756C6520656E74657273203020706F57
:100FF00077657220636F6E73756D7074696F6E20A4
:101000002E2E2E0D0A00000004490A6822F010025C
:101010000A600A6802430A6070470000002002402C
:10102000034A116801F03801014311607047000064
:1010300000200240F0B5CA78002502F00F03D20666
:1010400001D58A7813430A784FF00F0E12F0FF0F84
:101050004FF001021CD004680F8802FA05F63740F1
:10106000B74211D14FEA850C0EFA0CF724EA0707B4
:1010700003FA0CF43C43CF78282F02D0482F02D03B
:1010800002E0466100E006616D1C082DE4D30460B7
:101090000C88FF2C1ED944685FF0000606F1080793
:1010A00002FA07F50F882F40AF420FD14FEA860CA6
:1010B0000EFA0CF7BC4303FA0CF73C43CF78282F09
:1010C00000D14561CF78482F00D10561761C082EEC
:1010D000E4D34460F0BD0246002092680A4200D08A
:1010E000012070470AB10161704741617047FEE716
:1010F00008B50121042000F049FF7F20ADF8000071
:1011000048208DF8030003208DF80200694602484C
:10111000FFF790FF08BD0000000C014070B53F4C88
:101120000020012562780146052A75D2DFE802F029
:10113000030C172E4B00394A08321154401CC0B220
:101140000528FAD3657070BD01F024F9A07000285D
:10115000F9D03248001D01F0FFFA022031E001F021
:1011600019F9A1788842EDD12C481E21001D01F00B
:10117000E7FA0128E7D1A07800F0FCFE03206070B8
:10118000BDE870402548001D01F0E6BA01F002F903
:1011900050B301F0FFF8A178884225D11F484FF4E1
:1011A0007A71001D01F0CCFA0128CCD11B48001D3A
:1011B00001F0D2FAA07840F08000A07000F0DAFED2
:1011C0000420607070BD01F0E5F868B101F0E2F84C
:1011D000A17840F0800088420BD001F0DBF8A178C4
:1011E00040F0C000884204D00C48001D01F0B4FA61
:1011F000A8E70A48C821001D01F0A2FA0128E1D1A0
:101200000648001D01F0A8FAA07840F04000A07048
:10121000BDE8704000F0AEBE617070BD2C000020D3
:1012200000F090BE08B50121082000F0AFFE4FF499
:101230008050ADF8000010208DF8030003208DF8D9
:10124000020069460348FFF7F5FE03490120C1F893
:10125000B00108BD000C0140008021420348D0F8D5
:10126000B011C943C0F8B01170470000008021429E
:1012700081070CD16421B0FBF1F201FB120141B9ED
:101280004FF4C871B0FBF1F201FB120008B100206D
:10129000704701207047FEE77047000070B50F23CC
:1012A000C47801780122F4B1144C2468457804F420
:1012B000E064C4F5E064240AC4F10406E3408478E1
:1012C000B5401C402C4301F1E021230181F800349A
:1012D000007800F01F018A404009800000F1E02002
:1012E000C0F8002170BD01F01F0082404809800055
:1012F00000F1E020C0F8802170BD00000CED00E09E
:101300000249084302490860704700000000FA05DE
:101310000CED00E030B500210A4AC3B20DE0002018
:1013200006E000BF01FB04041568401C80B22B5589
:10133000548A8442F6D8491C89B2908A8842EED8F1
:1013400030BD0000080100202DE9F0471F46164679
:101350000D468046DDF820900CE0444606E04A4603
:101360002946204600F070FD641CA4B2B442F6D3B6
:101370006D1CADB2BD42F0D3BDE8F08770B5002260
:10138000094B0DE0002106E002FB04141E68055D18
:10139000491C355589B25C8A8C42F5D8521C92B2F0
:1013A000998A9142EED870BD080100202DE9F05FC6
:1013B00081462A481E46DDF82CB0838888464B4576
:1013C00002D3C188414504D2BDE8F05F24A0FEF7F6
:1013D0005BBFB088410700D0012101EBD000203A6B
:1013E000F1885043484331684FF0800A0F180025B8
:1013F0002FE0002424E000BFBBF1FF0F3A7804F097
:1014000007012AFA01F002EA000201D00AB908E055
:1014100082B108EB050081B209EB040080B20A9AA0
:1014200006E008EB050081B209EB040080B25A46E1
:1014300000F00AFDE043400700D17F1C641CA4B209
:10144000B088A042D8D83079400700D07F1C6D1CEE
:10145000ADB2F088A842CCD8BDE8F09F08010020CA
:1014600044656275673A205061696E745F447261C9
:10147000774368617220496E707574206578636582
:1014800065647320746865206E6F726D616C206492
:101490006973706C61792072616E67650D0A000076
:1014A0002DE9FF4F8046834885B00F468488139905
:1014B000444502D3C088B84205D809B07E48BDE88B
:1014C000F04FFEF7E1BE03200024A0EB420015B26E
:1014D0000FFA80FA01297AD0E9E0264661E000BFE0
:1014E0004FF0010908EB040007EB060B02901FFA0E
:1014F0008BF1CDF8009080B24B46089A00F0D0F9FD
:10150000A8EB040004901FFA8BF1CDF8009080B294
:101510000123089A00F0C4F93819CDE9009081B28E
:10152000A8EB060B1FFA8BF00123089A00F0B8F91C
:10153000381B039081B2CDF800901FFA8BF0012385
:10154000089A00F0ADF90498A7EB060B1FFA8BF18F
:10155000CDF8009080B20123089A00F0A1F902981A
:101560001FFA8BF1CDF8009080B20123089A00F0A9
:1015700097F9039808EB060B81B2CDF800901FFA9B
:101580008BF00123089A00F08BF90198CDF80090B8
:1015900081B21FFA8BF00123089A00F081F9761CC2
:1015A00036B2AE429CDDBAF1000F06DA0AEB8400D7
:1015B000801D0FFA80FA08E009E0611B0AEB810048
:1015C0000A306D1E0FFA80FA2DB2641C24B2AC42B0
:1015D00083DD09B0BDE8F08F08EB0400012607EBBE
:1015E000050902901FFA89F1009680B2129B089AB1
:1015F00000F056F9A8EB040003901FFA89F1009659
:1016000080B2129B089A00F04BF93819CDE90060BE
:1016100081B2A8EB05091FFA89F0129B089A00F025
:101620003FF9A7EB040B1FFA8BF11FFA89F0009624
:10163000129B089A00F034F90398A7EB05091FFAEA
:1016400089F1009680B2129B089A00F029F902985D
:101650001FFA89F1009680B2129B089A00F020F9D7
:1016600008EB05091FFA8BF11FFA89F00096129B0F
:10167000089A00F015F90198009681B21FFA89F0D6
:10168000129B089A00F00CF9BAF1000F05DA0AEB88
:101690008400801D0FFA80FA07E0611B0AEB8100CD
:1016A0000A306D1E0FFA80FA2DB2641C24B2AC42CF
:1016B00092DD8EE708010020A86C00082DE9FE4F9E
:1016C0001646314A1D46834693888A46834206D38E
:1016D000D2888A4203D3B34201D3AA4204D2BDE8DE
:1016E000FE4F2AA0FEF7D0BD321A00D5821B9146CC
:1016F0006A1A002A00DD4A1B90464FF0FF32B345BC
:1017000001D2012000E010460290AA4500D2012239
:1017100009EB0804002701927F1C0E98FFB20128F4
:1017200005D10320B7FBF0F100FB1170F8B10120E7
:10173000DDE90C2300905146584600F0B1F800BF97
:10174000B8EB440F07DCB3451BD0029944440BEBC4
:1017500001001FFA80FBB9EB440FDDDBAA4510D076
:1017600001994C440AEB01001FFA80FAD4E70120EA
:101770000090FF22514658460D9B00F091F800273B
:10178000DEE7BDE8FE8F00000801002044656275B9
:10179000673A205061696E745F447261774C696E7C
:1017A0006520496E70757420657863656564732083
:1017B000746865206E6F726D616C20646973706C03
:1017C00061792072616E67650D0A00002DE9FF4F97
:1017D000ADF5037D8846DDE990AB814600244FF4EA
:1017E000807715462646394642A8FEF759FE394607
:1017F00002A8FEF755FE194842AA83884B4503D339
:10180000C38802A8434512D215A0FEF73DFD0DF591
:10181000077DBDE8F08F00BF95FBF1F301FB13538B
:1018200095FBF1F530330355641C24B200E00A2126
:10183000002DF1D11146002C08DD031913F8013CED
:101840008B55761C641E36B224B2F4E7CDE900BA9B
:1018500041464846869B00F0FFF9D8E70801002082
:1018600044656275673A205061696E745F446973BC
:101870004E756D20496E707574206578636565647A
:101880007320746865206E6F726D616C206469737B
:10189000706C61792072616E67650D0A000000004E
:1018A0002DE9F05F2B4D93468146AA880A981C4685
:1018B00088464A4502D3EA8842450ED226A0FEF762
:1018C000E3FCAA88494634A0FEF7DEFCEA884146DC
:1018D000BDE8F05F39A0FEF7D7BC012801D0002693
:1018E00034E00025681E00EB440718E009EB050012
:1018F0000026A0EB040A0EE0BAF1000F0DD408EBAD
:101900000600001B09D481B21FFA8AF05A4600F083
:101910009BFA761C36B2B742EEDC6D1C2DB2AF429C
:10192000E4DCBDE8F09F002509EB06077F1E09E017
:1019300008EB0500401E81B2B8B25A4600F084FAA6
:101940006D1C2DB2A542F3DB761C36B2A642EADB53
:10195000E7E700000801002044656275673A2050FF
:1019600061696E745F44726177506F696E7420496B
:101970006E7075742065786365656473207468653E
:10198000206E6F726D616C20646973706C61792078
:1019900072616E67650D0A0058706F696E74203D44
:1019A000202564202C205061696E742E5769647460
:1019B00068203D20256420200D0A200059706F69A1
:1019C0006E74203D202564202C205061696E742E99
:1019D000486569676874203D20256420200D0A2031
:1019E000000000002DE9FE4F8246294891460C4632
:1019F000DDE90D5281880C9E1F46514506D3C088F3
:101A0000A04203D3494501D3B84204D2BDE8FE4FFA
:101A100020A0FEF739BC0020804662B90FE0CDE976
:101A2000006523464A4619465046CDF80880FFF720
:101A300045FE641CA4B2BC42F1D3BDE8FE8FCDE9E3
:101A4000006523464A4619465046CDF80880FFF700
:101A500035FECDE9006552463B4621461046CDF89D
:101A60000880FFF72BFECDE900654A46234639463C
:101A70001046CDF80880FFF721FECDE900653B4612
:101A8000524619464846CDF80880FFF717FED4E7BE
:101A90000801002044656275673A20496E707574CC
:101AA000206578636565647320746865206E6F7265
:101AB0006D616C20646973706C61792072616E670E
:101AC000650D0A002DE9F05F1D46904606468A46E0
:101AD000DDF82CB0B6E07F294FF0000054D8AA887A
:101AE0004CE053232C68434314F813308B4244D109
:101AF00053214843022101EB400004EB0009002779
:101B000037E000242CE000BF4FEAE47004EB507093
:101B100020F00700A4EB0002BBF1FF0F99F80010C2
:101B20004FF0800020FA02F001EA000101D009B96B
:101B300007E071B10AEB070081B2301980B20A9A4E
:101B400005E00AEB070081B2301980B25A4600F076
:101B50007BF940482040072801D109F10109641CA4
:101B60002889A042D0DC287A400701D009F1010978
:101B70007F1C6889B842C4DC02E0401C8242B0DCB1
:101B800008F10108E8885CE00127AB8854E05322A3
:101B90002C68424314F812C08C454CD107EB42022A
:101BA000A45C98F80120944245D15322504302226C
:101BB000296802EB400001EB0009002737E0002410
:101BC0002CE000BF4FEAE47004EB507020F00700F7
:101BD000A4EB0002BBF1FF0F99F800104FF080005A
:101BE00020FA02F001EA000101D009B907E071B161
:101BF0000AEB070081B2301980B20A9A05E00AEBBD
:101C0000070081B2301980B25A4600F01DF9114820
:101C10002040072801D109F10109641C2889A0424C
:101C2000D0DC287A400701D009F101097F1C6889BE
:101C3000B842C4DC02E0401C8342A8DC288908F1D9
:101C40000208064498F8001000297FF444AFBDE86C
:101C5000F09F0000070000802DE9FC5F80461B48D4
:101C600089460D4681884446DDF834B01E46174645
:101C7000A14203D3C1888246A94222D2BDE8FC5FBB
:101C80001348FEF701BBB088BAF804300119994235
:101C900003D9F188444629448DB2F188BAF8060088
:101CA0002944814201D944464D460C983346CDE93A
:101CB00000B029462046FFF779FBB0887F1C2044FE
:101CC00084B23A78002ADED1BDE8FC9F08010020EA
:101CD000646C00082DE9FF4F85B046A11746804689
:101CE000DDE9126507C902AB4FF00A0983E8070076
:101CF00039790898B1FBF9F19A4684881AF80120DD
:101D0000CDE900564046089B0699FFF74FFB39790D
:101D100008EB040BB1FBF9F209FB12111FFA8BF06F
:101D20001AF80120CDE90056089B0699FFF73EFB03
:101D3000CDE900560BEB940000EB540080B23A2240
:101D4000089B0699FFF732FB797908EB4400B1FB59
:101D5000F9F100EB54001AF80120CDE9005680B2E9
:101D6000089B0699FFF722FB797904EB440BB1FB42
:101D7000F9F209FB12110BEB08001AF80120CDE96A
:101D8000005600EB540080B2089B0699FFF70EFB4B
:101D900008EB8400CDE9005600EB5400A0EB940062
:101DA00080B23A22089B0699FFF700FBB979089B9D
:101DB000B1FBF9F11AF8012004EB8401CDE90056DA
:101DC00001EB080080B20699FFF7F0FABA7908EB48
:101DD0004B00B2FBF9F109FB112180B21AF8012086
:101DE000CDE90056089B0699FFF7E0FA09B0BDE877
:101DF000F08F000030313233343536373839000057
:101E000070B50D4C049E0025206021816281A68161
:101E10000220E0824E074FEAD10000D0401C6082D1
:101E2000A282E381258223B1B42B02D0A280E1807B
:101E300070BDA180E28070BD0801002001490860EA
:101E40007047000008010020F0B4324CA3888342A0
:101E500034D3E3888B4231D32346E7891E895D89D9
:101E6000CFB15A2F1AD0B42F1CD0B7F5877F3FD1EE
:101E70000B46281A401E80B2218AD9B1012916D0FA
:101E8000022904D0032933D1F11A491E8BB2281A32
:101E9000401E80B20EE003460846EDE7711A491E67
:101EA0008BB2E9E7301A401E83B2681AE2E7F11AF2
:101EB000491E8BB29E4201D3854203D2F0BC16A0CC
:101EC000FEF7E2B91349E58A4C8A0968022D11D060
:101ED000042D0DD1444304EB930490079B075B0F43
:101EE000C025DD400A5D000EAA43D84010430855C6
:101EF000F0BC7047444304EBD3048020002A0D5DFE
:101F000003F0070220FA02F001D02843EFE78543EF
:101F10000D55EDE70801002044656275673A2045DC
:101F20007863656564696E6720646973706C617954
:101F300020626F756E6461726965730D0A0000003E
:101F40007047000030B50A4C0021237873B104F1CA
:101F50000802107855186D785554491CC9B20429E7
:101F6000F8D3002111715B1E237030BD002030BDFD
:101F70002C000020044A1178052904D202F108033C
:101F80005854491C117070472C000020044A002945
:101F9000916901D0014300E08143916170470000E5
:101FA0000010024010B500F02FF84FF480342046A6
:101FB00000F0BCF800F002F9012823D14FF4E01141
:101FC000204600F0E7F8002000F0A6F8A01100F08D
:101FD000C7F8002000F0CEF80220FFF721F810200B
:101FE000FFF712F8012000F0CFF8392000F074F864
:101FF0000028FAD0022000F0D7F800BF00F084F8E3
:102000000828FBD110BD00000C48016841F0010117
:10201000016041680A4A114041600168094A114063
:102020000160016821F480210160416821F4FE0112
:1020300041604FF41F0181607047000000100240B2
:102040000000FFF8FFFFF6FE30B51F494A6812F0A6
:102050000C031E4A03D0042B01D0082B21D00260B0
:102060004A680F231A4C03EA1212A35C0268DA4092
:1020700042604B68072505EA1323E35C22FA03F369
:1020800083604B6805EAD323E35CDA40C2604968A9
:10209000032303EA9131231F595CB2FBF1F1016183
:1020A00030BD4A684B6802F470124FF0020413F41A
:1020B000803F04EB924202D04B689B0301D5054B55
:1020C00000E0024B5A43CAE70010024000127A00B7
:1020D0000800002000093D0002460020530909497C
:1020E000012B0BD0022B0BD0D1F8241002F01F02D1
:1020F000012393400B4200D0012070470968F5E7A7
:10210000096AF3E7001002400248406800F00C0042
:102110007047000000100240034A516821F0F001AE
:102120000143516070470000001002400B490A68EB
:1021300022F480320A600A6822F480220A60B0F534
:10214000803F07D0B0F5802F03D1086840F4A0206D
:1021500008607047086840F48030F9E700100240DA
:10216000034A516821F4E061014351607047000067
:102170000010024003494A6822F4605242EAC0005B
:10218000486070470010024001490866704700002F
:1021900000004242034A5368084323F47C13184367
:1021A0005060704700100240034A516821F003015B
:1021B00001435160704700000010024018B5002034
:1021C0004FF4A06400903120FFF786FF0099491C6E
:1021D0000091A14201D00028F5D03120FFF77CFF0B
:1021E000002800D0012018BD02490A8882430A80D5
:1021F0007047000004280040034800880249091F76
:10220000098840EA014070471C28004006490988B7
:10221000C2B21140044A121F1288024202D009B110
:1022200001207047002070470428004010B50120AD
:10223000FFF7ECFF20B100F011F80120FFF7D4FF09
:102240000220FFF7E3FF10B10220FFF7CDFF0420CB
:10225000FFF7CAFFBDE8104000F094B82DE9F05F29
:10226000444D4FF4616800226888434C4FF03C09AC
:10227000404519D22978012916D0401C80B2494620
:10228000B0FBF1F3DBB2688063703B2B00D9627066
:10229000B0FBF8F308FB1300B0FBF1F209FB1200EE
:1022A000A0700120BDE8F09F2A70FFF7A5FFDFF8BE
:1022B000CCA00746B0FBFAF3A888984230D0AB8098
:1022C00040F2B2764FF4B67B10E03046FEF7D0FF16
:1022D00040B106F10106B3F5B77FB6B208D3A3F556
:1022E000B77303E0761CB6B2A3F26D135B45ECD86E
:1022F000A6800026DFF888B00CE0A088FEF7B8FFC3
:1023000008B1012E31D01BF80600984204D81B1AE0
:10231000761CB6B21C2BF0D2761CA6715B1C237205
:10232000B7FBFAF10AFB11714046B1FBF0F22270E3
:10233000B1FBF0F208FB12134A46B3FBF2F36370F1
:10234000B1FBF0F308FB1313B3FBF9F609FB1632EC
:10235000A270B1FBF8F208FB12106880227AA17912
:10236000A088FEF76BFAE0719BE71D2BD4D31D3BD1
:10237000CEE700004C000020FC000020805101004E
:102380004C2A0008024801888906FCD570470000E5
:102390000428004010B51A4C01212046FEF79BFE90
:1023A000F8B102212046FEF796FEE0B10421204656
:1023B000FEF791FEC8B108212046FEF78CFEB0B1B1
:1023C00010212046FEF787FE98B120212046FEF717
:1023D00082FE80B140212046FEF77DFE68B10020DC
:1023E00010BD302010BD312010BD322010BD332073
:1023F00010BD342010BD352010BD362010BD0000AA
:10240000000C014008B501210420FFF7BFFDA0200A
:10241000ADF8000018208DF8030003208DF80200AD
:1024200069460248FEF706FE08BD000000080140AC
:1024300010B5012186B00803FFF7A8FD4FF48270A4
:10244000ADF802000020ADF808004FF40071ADF8BF
:102450000A102821ADF80C10ADF80400ADF800000A
:10246000ADF80600ADF80E000A20074CADF81000DC
:102470006946204600F047F8FFF7C4FF01212046D7
:1024800000F02CF806B010BD0030014070B50646D3
:102490000024114D03E0641CE4B2C82C0FD80221C3
:1024A000284600F025F80028F5D03146284600F0EF
:1024B00028F8002405E0641CE4B2C82C01D90020EF
:1024C00070BD0121284600F013F80028F3D02846FB
:1024D00000F015F8C0B270BD00300140002901883D
:1024E00002D041F0400101E021F04001018070473D
:1024F0000246002012890A4200D0012070478089DC
:1025000070478181704730B502884C8802F441538E
:102510000A88CD8822438C882C4322430C8922438D
:102520004C8922438C892243CC8922431A4302805E
:10253000828B22F400628283098A018230BD704757
:102540000CB50021264801910091026842F48032C6
:1025500002604FF4A063026802F400320092019A14
:10256000521C0192009A12B9019A9A42F3D1026860
:10257000920333D5012100911A490A6842F01002F2
:102580000A600A6822F003020A600A6842F0020246
:102590000A604168416041684160416841F480617E
:1025A0004160416821F47C114160416841F4E811C7
:1025B0004160016841F08071016001688901FCD5CA
:1025C000416821F003014160416841F0020141602E
:1025D0004168C1F381010229FAD10CBD00910CBD03
:1025E0000010024000200240124813490068B0FB6E
:1025F000F1F01249C0B200EB40020870C2EBC0100B
:102600004FF6FF7202EAC0004880B0F1807F0FD21F
:102610004FF0E021401E4861094AF02082F8140D75
:1026200000208861072008616FF0040000F00AB8FC
:10263000FEE700001800002000127A004000002091
:102640000FE000E04FF0E0210428086903D020F0FB
:1026500004000861704740F00400FAE7024841684E
:10266000491C416070470000400000200F4810B531
:10267000016841F00101016041680D4A114041606B
:1026800001680C4A11400160016821F48021016059
:10269000416821F4FE0141604FF41F018160FFF7A2
:1026A0004FFF05494FF00060086010BD0010024068
:1026B0000000FFF8FFFFF6FE08ED00E010B50B4C40
:1026C0000221204600F02BF800280DD002212046E0
:1026D00000F022F80021204600F02FF82046BDE847
:1026E0001040642100F027B810BD0000002C01400C
:1026F00010B5084C0121204600F011F8012807D13F
:102700000121204600F008F8BDE81040FEF7A6BD04
:1027100010BD000000040040C9430182704702461A
:102720000020138A92890B4202EA010202D0002A99
:1027300000D0012070478186704781847047000077
:10274000044A00685268101A884201D30120704779
:10275000002070474000002001494968016070472F
:102760004000002070B5154C40F22551204600F085
:1027700087F800280ED0204600F010F9C2B21048A9
:1027800001880B0406D44C044FF0000306D40A2A37
:1027900001D0038070BD41F400410DE00D2A09D045
:1027A000C1F30D04074D491C89B22A5501807F29C8
:1027B000EFD870BD41F48041018070BD0038014008
:1027C0003A0000207C00002070B5054686B001214B
:1027D00044F20400FFF7DAFB4FF40070ADF810008C
:1027E00018208DF813001F4E03248DF8124004A901
:1027F0003046FEF71FFC3015ADF8100004208DF8B0
:1028000013008DF8124004A93046FEF713FC252072
:102810008DF814008DF815408DF8164001208DF8C4
:10282000170005A8FEF73AFD0020ADF80400ADF84A
:102830000600ADF80800ADF80C000C200A4CADF80D
:102840000A0000956946204600F052F8012240F245
:102850002551204600F033F80121204600F006F80B
:1028600006B070BD00080140003801400029818990
:1028700002D041F4005101E021F400518181704700
:1028800030B501F01F0201240025C1F3421304FA00
:1028900002F2012B0FD0022B0FD0838A4FEA1121B5
:1028A0000088134204FA01F400EA040001D000B1E8
:1028B0000125284630BD8389F0E7038AEEE710B58D
:1028C000C1F3421301F01F040121A140012B07D0E5
:1028D000022B07D01430002A026805D00A4304E016
:1028E0000C30F8E71030F6E78A43026010BD0000B4
:1028F00030B50446008A85B00D464CF6FF7108409D
:10290000E98801432182A1894EF6F3100140A8888D
:102910002A8910436A890A431043A081A08A4FF68E
:10292000FF410840A9890143A1826846FFF78CFB5B
:102930001948844201D1039800E00298A189090452
:1029400000EBC00101EB0010296801D5490000E04F
:102950008900B0FBF1F06422B0FBF2F109010B0930
:102960006FF018056B4300EB8300A3891D044FF043
:10297000320306D503EBC000B0FBF2F000F0070015
:1029800005E003EB0010B0FBF2F000F00F0008438D
:10299000208105B030BD0000003801408088C0F3C0
:1029A00008007047FEE730380A2801D2012070473E
:1029B000002070477047704704490A885206FCD5CA
:1029C000024AC1B2121D1180704700000038014058
:1029D000FFF7E8FAFFF708FEFEF724FCFEF788FB96
:1029E0004FF4A060FEF78CFC4FF4E130FFF7ECFEF3
:1029F0000EA0FDF749FCFDF797FFFDF767FFFEF717
:102A000035F91148FFF7A8FE4FF4FA74FEF786FB7C
:102A1000FEF706FC21460C48FFF792FE0128F5D18F
:102A20000948FFF799FEFEF719FCEFE70D0A555329
:102A30004152543120496E69742046696E69736849
:102A40006564210D0A000000000000201F1C1F1EED
:102A50001F1E1F1F1E1F1E1F000303060104060268
:102A60000500030500000000000000000000000059
:102A70000000000000000000000000000000000056
:102A80000000000000000000000000000000000046
:102A90000000000000000000000000000000000036
:102AA000380000000000000000000000000F0000DF
:102AB000780000000000000000000000001F8000FF
:102AC000F8000000000000000000000000FFC0034C
:102AD000F8000000000000010000000001FFE01FFE
:102AE000F800000000000000C000000003FF701F9D
:102AF000F0000000000000007E00000003FF7838B6
:102B000000000000000000003F00000003FFF8F09C
:102B100000000000000000000FC0000003F0F8C13A
:102B2000F80000000000000003F0000003F3F38F42
:102B3000FE0000000000000001F8000003FFF3BFEA
:102B4000FFC0000000030000003E000003FFFA7F0A
:102B5000FFF00000000F0000003FE00000E7FBFF77
:102B6000FFF0000000070000003FF00000E7FBFF5F
:102B7000FFE0000000030000001FFC0000FFFBFF5F
:102B8000FFE0000000030000000FFE00007FFBCF0D
:102B9000FFE00000000300000003FE00003FF9CF4B
:102BA000FFE00000000300000001FF80000FF1FFC4
:102BB000FFE00000000300000000FFC000003DEF48
:102BC000FFE000000003000000007FE00003FFF7CB
:102BD000FFC000000003000000003FE0003FFFFFD7
:102BE000FF8000000003000000001FE0007EFFFFE8
:102BF000FF0000000003000000000FE0003EFFF1B6
:102C0000FF0000000003000000000FE0003FFFBFD6
:102C1000FC00000000030000000007F0003E7F3FC2
:102C2000F838000000030000000007F0007E7FC0BD
:102C3000007C000000030000000007F0007E3FC0A1
:102C400001FE000000030000000007F0007F1FDF0E
:102C5000FFFF000000030000000003F0007F87EF8B
:102C6000FFFF800000030000000003F0007FE3F19D
:102C7000FFFF000000030000000003F00187FC7864
:102C8000FE00000000030000000003F00301F8FF55
:102C90000000000000030000000003F00E0001FF30
:102CA0008000000000030000000003F00C0003FFA0
:102CB0008000000000030000000003F01C000F98DB
:102CC0000000000000030000000003F038007F9CBB
:102CD0000000000000030000000003F030003FDCB3
:102CE000000000000003000007FE07E030001FFEA8
:102CF00000000000000300000FFF87F070001FFCC1
:102D000000000000000300001FFFC7F000000FFEDE
:102D100000000000000300003FFFE7E000000FF0AC
:102D200000000000000300007FFFF3E07FFFEFE002
:102D30000000000000030000FF9FFBCFFFFFC6184C
:102D40000000000000030003FFCFF9DFFFFFC00811
:102D5000000000000003000EFFDFFDFFFFFE00008B
:102D600000000000000301F0FFFFFDFFFE00000077
:102D700000000000000303F8FFFFFDFFFC0000005F
:102D800000000000000307FCFFDFFDFFF80000006B
:102D90000000000000030FFEC7DFFDFF8000000001
:102DA0000000000000033E7FF7DFFFFE3000000060
:102DB0000000000000033E7FF7DFCFF03800060080
:102DC0000000000000037E7FFFFF9FE038001FC06F
:102DD0000000000000037F1FFFFE3E003C003BE0C0
:102DE0000000000000037F8FFFFE7C003C003BE002
:102DF0000000000000037F87FE3FF8003C007FF0EA
:102E00000000000000037FA1F81FFC001C007CF004
:102E10000000000000033FFFF00FFC000C007E7C70
:102E20000000000000033FFFF00FFE000C007F3C9D
:102E30000000000000031FFFF00FFF000C003F80A8
:102E40000000000000030FFFF00E7F800C003FC069
:102E500000000000000307FFF80E3FC00C001FF049
:102E600000000000000303FFF81E1FE00C000FF03D
:102E7000000000000003003FFE3F87E03C000FBE63
:102E80000000000000030047FFFFF0603C000FBFA0
:102E90000000000000030031FFFFF8E038000FBF22
:102EA0008000000000030611FFFDFFE038000F1F47
:102EB0008000000000030E13FFF9FFE030000E0752
:102EC0008000000000033CD7FDFDFFE030001CC780
:102ED00080000000000339EFFBFFFFE030003DFF02
:102EE00080000000000373EFFBFFFFE060003DFF88
:102EF00080000000000367EFFBFFFFC0C0003FFF42
:102F00008000000000038FF7E3FFFF80E0001BFF5D
:102F10008000000000039FF3E1FFE001C0003BFFE1
:102F2000C000000000033FF1F9FFC00380007FFFF5
:102F3000E000000000037FF1FDFF800700001FFF9D
:102F4000F80000000003FFF1FFFF800F00003FFFCB
:102F5000FC0000000003FFE0FFFF000E00003FFF49
:102F60009C0000000003FF800FFF0006000003F636
:102F70007C0000000003FF001F7C00F8000009F047
:102F80003C0000000003FE003F3801FC00001CF87C
:102F90001C0000000003FC00FF9003FE00003DFF4A
:102FA0009C0000000003F800FFC00FFF000073FF4B
:102FB000CC0000000003F000FFE00FFF000061FF05
:102FC000FC6000000003F001FFF01FFF0000C0FFE5
:102FD000FFF000000007E001FFBFFFFF8000E000FE
:102FE0007FF000000003C001FF3FFFFF8000C00032
:102FF0003FF8000000018001FE7FFFFF800080009D
:103000001FFC000000070000FE7FFFFF8000800023
:103010000CFC000000030000F07FFFFF00008000B8
:10302000047C0000000300007E3FFFFC00018000E4
:1030300003FC0000000300007E3FFFFE0001800053
:1030400001F00000000300003FDFBFFF80018000AF
:1030500000000000000300003FCFBFFFC0010000E0
:1030600000000000000300007FCFFFFFE001000030
:103070000000000000030000FFCFCFFFC001800070
:10308000000000000003001EFFEFC7FFC0010000AA
:1030900000000000000301FCFFE7F07F8003000058
:1030A00000000000000707C0FFF3F8FF000F00005A
:1030B0000000000000030F807FF3F9FE000E000007
:1030C0000000000000011F003FF3FBFE000C0000A9
:1030D000000000000001380003F9FBF3E0180000D5
:1030E000000000000001F0003CF9FBEFF0300000B0
:1030F000000000000001C0007DF9FBCFF07000006F
:103100001800000000018000FFF8FBCFFCC00003A6
:10311000F800000000018000FFFCFBFFFC0000073E
:10312000F800000000018000FFDEFBFF7C00003F94
:10313000FC00000000010000FFDEF3FF3C00007F08
:10314000FE00000000010000FFC2F3FF1C0000FFB2
:10315000FE00000000010000FBE3FFFF3C0000FF59
:10316000FF00000000010000F9EFFFFE3C0000FF3F
:10317000FF00000000010000FCFFFFF9FC0000DC84
:103180007F00000000010001FE7FFFE3FE0000FF62
:10319000BF00000000010001FE3FFFC7FE0000FF6E
:1031A0009F00000000010003FF3FFFCFFF0000FF72
:1031B000BF000000000100FFFFCFFFFFFF8000FF06
:1031C000FE00000000010FE07FFF87FFFF8000FF8F
:1031D000C000000000011F803FFF03FFCE0000FF82
:1031E000000000000001F0000FFE01FC1E0000F0D6
:1031F000000000000001E07FC7FC01FC3E0000C1B0
:10320000FFE000000001C1FFF7F801FFFC00018DA5
:10321000FFF00000000187FFFBFC01FFF8000F1E1C
:10322000FFF8000000013F8003FC01FFF0000E7E6C
:103230007FFE00000001F80007FE01FFE2001E7F94
:103240003FFC00000001E0FF9FDF03FFC6601CFFA2
:103250008FFE000000018FC0FF3FC7EFE3783E1FE5
:10326000CFFF00000001DF80FE7FEFE7F1BC7F0FA2
:10327000CFFFC0000001FC00FDFFFFE3F19E3FC354
:10328000E7FF00000001F801F1F9FFF1FDCF9FE138
:10329000FFFF000000018001F3F1FFF9FDC19FF87D
:1032A000FFE0000000010001FFE3FDFEFFC03FF072
:1032B0000003800000010000FFE3FDFF7FC07FC02E
:1032C0000007800000010000FFE7FCFF0780FFCF40
:1032D000FFFF000000010000FFEFCE7F07007E7FB0
:1032E000FFFE000000011FFEFFFFCE7F3E003E7F7D
:1032F000FFFC00000001FFFFFFF1CE3F3E003FFC5E
:1033000007F800000001FFFF3FE18E3F3E001FFC79
:1033100007F000000001E0000E038E3F3E000FFFAB
:10332000F80000000001FFFF87FF8E3F1E0004FE33
:103330003E0000000001FFFFC7FF8F3FBE0000FE00
:103340001E0000000001FFFFC7FF8F9FFE0000FC72
:103350003F800000000187FF8FFF8F9FFE000079F4
:10336000FFC00000000100063FFF8FDFFE00007F6E
:10337000FFC00000000100007FFF8F8FFC00001FD6
:10338000FFE0000000018000FFFF8F1F0000000F22
:10339000FFF000000001C001FFFF8E3F810000012F
:1033A000FFE000000001E001FFFF8E7FC38000000E
:1033B000FF8000000001F800FFF38E7FE7C00000EF
:1033C0007F0000000001FF80FFE78FFFC4E00000E6
:1033D00000000000000187E1FFDF8FFFCE1C00002E
:1033E000000000000001F1F8FFFF8FFFCFCF0000C9
:1033F000000000000001FE1CFFBE43E01FF3800040
:10340000000000000001FF067F3E63C13FF1E000C5
:10341000000000000001FF833E3CF3811FF8F00034
:10342000000000000001FFE18039FF0007FE780086
:10343000000000000001FFFE601FFE1C03FF1C00D7
:103440000000000000010FFF3C1FFE6001FF8E0026
:1034500000000000000101FF9E0FFFC0003FC300FD
:10346000000000000001007FC38FFD80003FE3806B
:10347000000000000001003FE1C7FC00003FF1C078
:10348000000000000001001FF1E3F8000007F060F9
:10349000000000000001800FF1E1F0000003F830AF
:1034A0000000000000018001F83000000001FC3C39
:1034B0000000000000018000F81800000000FC0E71
:1034C0000000000000018000FC0C00000000FE0F66
:1034D00000000000000180007C0C000000007E075E
:1034E00080000000000180007C06000000003F0317
:1034F00080000000000180007E06000000001F81A7
:1035000080000000000180001E03000000000F800A
:10351000C0000000000180000E01000000000780D4
:1035200060000000000180000F018000000003C067
:1035300030000000000180000781C000000001C0D1
:1035400038000000000180000781C000000000C0BA
:10355000180000000001800007C0E00000000040EB
:10356000080000000001800003C0F000000000001F
:10357000040000000001800003C070000000000093
:10358000060000000001800001C07000F80000008B
:10359000020000000001800003C03000FFF00000C6
:1035A000070000000001800003C03001FFF80000A8
:1035B000038000000001800001C03001FFFC00001A
:1035C000038000000001800001C01801FFFE000020
:1035D000038000000001800001C00800FFFF000020
:1035E00001C000000001800001C0080067FF00006A
:1035F00001C000000001800001C00800FFFF0000C2
:1036000000C000000001800001800803FFBF8000AF
:10361000004000000001800000000807FF3F80001C
:10362000004000000001800000000803FFBFC00050
:10363000004000000001800000000803FF3FC000C0
:10364000004000000001800000000803F01FC000DF
:10365000004000000001800000000803FFCFF000E0
:10366000004000000001800000000801FFE7FC00AE
:1036700000C000000001800000000801FFF3FFF01F
:1036800001C000000001800000000801FFF8FFF801
:103690000180000000018000000008007FFC7FFF27
:1036A0000380000000018000000008001FFF007F71
:1036B0008380000000018000000008003FFF801FA1
:1036C000C780000000018000000008003FFFFFFFEE
:1036D000C300000000018000000008003FFFFFFF62
:1036E000C400000000018000000008003FFFFFFF51
:1036F000C400000000018000000018001FFFFFFF51
:10370000C400000000018000000038000FFFFFFF30
:10371000C0000000000180000000780003FFFFFFF0
:10372000C0000000000180000000F800007FFFFFE3
:10373000FC000000000180000001F800003FFFFFD6
:10374000FC0000000001800000003800003FFFF98D
:10375000FC0000000001800000001800003FFFF3A3
:10376000FC0000000001800000000800003FFFE7AF
:10377000FC0000000001800000000800003CFC1F6D
:10378000F80000000001800000008C00007E007F37
:10379000980000000001800000798C0007FF0FFFF7
:1037A0009C0000000001800000FCC6000FFF7FFFAE
:1037B000780000000001800001F846000FFF7FFE46
:1037C000780000000001800003FC07000FFF7FFE6F
:1037D000780000000000800007FE07C00FFF7FFE9A
:1037E000600000000000800007F9E7E007FF7FF8B5
:1037F000C00000000000800003E3F3F003FFFFF1CE
:10380000C0000000000080007FC3F33801FFFFF11B
:103810008000000000008000FFDFF31C007FFFE35A
:103820008000000000008000FF9FF38E003FFFE754
:103830008000000000008000FE33FBCF001FFFCFA0
:103840000000000000008001FE3FF1CF000FFFCF1D
:1038500000000000000080000C7FCDE3800FFFDF40
:10386000000000000000800101FC8E7F800FFF9FA0
:10387000000000000000800FF9FC1E3F800FF3BF26
:10388000000000000000800FFDFC3E3F800FE1BF04
:10389000000000000000800FFCFC3F3F800FC13F94
:1038A000000000000000801FE5F83B9F800FC23F32
:1038B000800000000000801FCFF033DFC0039C0FAA
:1038C00080000000000080000E0039D9C00038637D
:1038D000C00000000000800FFE000FEEF000FFF3BC
:1038E000F00000000000801FFE0007EE7801FFFFDF
:1038F000F00000000000001FFE0007EE3C01FFFF8B
:10390000F00000000000001FFE0007EF3C01FFFF79
:10391000F00000000000001F7C0000EFFC01FFFF32
:10392000F00000000000001E1C00006FFC01FFFF03
:10393000C00000000000000000000033FE00FFFF98
:10394000C00000000000000000000003FE00FFFFB8
:10395000800000000000000000000007FE003FFFA4
:10396000800000000000000000000007FE001FFFB4
:10397000800000000000000000000003FC0003FFC6
:10398000800000000000000000000001FE0003FFB6
:103990008000000000000000000000007E0003FF27
:1039A000800000000000000000000000000003FF95
:1039B000000000000000000000000000000001FE08
:1039C000000000000000000000000000000000787F
:1039D00000000000000000000000000000000030B7
:1039E00000000000000000000000000000000000D7
:1039F00000000000000000000000000000000000C7
:103A000000000000000000000000000000000000B6
:103A100000000000000000000000000000000000A6
:103A20000000000000000C000C000C000C000C005A
:103A30000C000C000C0000000C0000000000000056
:103A400000000000000000001DC01DC008800880AC
:103A500008800000000000000000000000000000DE
:103A60000000000000000D800D800D800D803FC023
:103A70001B003FC01B001B001B001B0000000000C0
:103A80000000000004001F803180318038001E00DB
:103A90000F000380318031803F00040004000000EB
:103AA00000000000000018002400240018C0078057
:103AB0001E00318002400240018000000000000032
:103AC00000000000000000000F001800180018009F
:103AD0000C001D80370033001D8000000000000036
:103AE00000000000000000000700070002000200C4
:103AF00002000000000000000000000000000000C4
:103B00000000000000000300030006000E000C008F
:103B10000C000C000C000E00060003000300000067
:103B2000000000000000180018000C00060006004D
:103B300006000600060006000C001C00180000002D
:103B4000000000000000060006003FC03FC00F005C
:103B50001F8019800000000000000000000000002D
:103B60000000000000000000000004000400040049
:103B70003F8004000400040000000000000000007A
:103B80000000000000000000000000000000000035
:103B9000000000000000060004000C0008000800FF
:103BA0000000000000000000000000000000000015
:103BB0003F80000000000000000000000000000046
:103BC00000000000000000000000000000000000F5
:103BD0000000000000000C000C00000000000000CD
:103BE0000000000000C000C001800180030003004D
:103BF00006000C000C001800180030003000000017
:103C00000000000000000E001B0031803180318078
:103C10003180318031801B000E0000000000000068
:103C200000000000000006003E000600060006003E
:103C300006000600060006003FC00000000000006D
:103C40000000000000000F00198031803180030067
:103C500006000C00180030003F800000000000004B
:103C60000000000000003F006180018003001F0091
:103C700003800180018061803F000000000000009F
:103C8000000000000000070007000F000B001B00F1
:103C9000130033003F8003000F800000000000008D
:103CA0000000000000001F801800180018001F000E
:103CB00011800180018021801F00000000000000B1
:103CC00000000000000007801C00180030003700D2
:103CD00039803180318019800F0000000000000021
:103CE0000000000000007F00430003000600060003
:103CF000060006000C000C000C0000000000000094
:103D00000000000000001F003180318031801F0062
:103D100031803180318031801F00000000000000C0
:103D20000000000000001E0033003180318033802D
:103D30001D800180030007003C000000000000001F
:103D40000000000000000000000000000C000C005B
:103D50000000000000000C000C000000000000004B
:103D6000000000000000000000000000030003004D
:103D70000000000000000600040008000800000029
:103D8000000000000000000000C003000400180054
:103D9000600018000400030000C0000000000000E4
:103DA00000000000000000000000000000007FC0D4
:103DB00000007FC0000000000000000000000000C4
:103DC0000000000000000000600018000400030074
:103DD00000C00300040018006000000000000000A4
:103DE00000000000000000001F00318031800180D1
:103DF00007000C000C0000000C0000000000000098
:103E00000000000000000E0011002100210027002A
:103E1000290029002700200011000E0000000000EA
:103E200000000000000000003F000F0009001980A2
:103E300019801F8030C030C079E000000000000011
:103E400000000000000000007F00318031803180E0
:103E50003F003180318031807F0000000000000091
:103E600000000000000000001F4030C06040600003
:103E700060006000604030801F0000000000000013
:103E800000000000000000007F00318030C030C022
:103E900030C030C030C031807F0000000000000022
:103EA00000000000000000007F8030803080320081
:103EB0003E003200308030807F8000000000000033
:103EC00000000000000000007FC0304030403200A1
:103ED0003E003200300030007C0000000000000096
:103EE00000000000000000001E8031806080600043
:103EF000600067C0618031801F000000000000008A
:103F000000000000000000007BC031803180318063
:103F10003F803180318031807BC000000000000094
:103F200000000000000000003FC006000600060080
:103F300006000600060006003FC00000000000006A
:103F400000000000000000001FC003000300030089
:103F500003006300630063003E00000000000000F7
:103F600000000000000000007BC0318033003600FC
:103F70003C003E003300318079C0000000000000AA
:103F800000000000000000007E001800180018006B
:103F900018001840184018407FC0000000000000C2
:103FA0000000000000000000E0E060C071C07BC0C5
:103FB0006AC06EC064C060C0FBE00000000000008A
:103FC000000000000000000073C0318039803D8097
:103FD0003580378033803180798000000000000018
:103FE00000000000000000001F00318060C060C0C1
:103FF00060C060C060C031801F0000000000000091
:1040000000000000000000007F003180318031801E
:1040100031803F00300030007E00000000000000D2
:1040200000000000000000001F00318060C060C080
:1040300060C060C060C031801F000CC01F800000E5
:1040400000000000000000007F00318031803180DE
:104050003E003300318031807CE000000000000031
:1040600000000000000000001F8031803180380017
:104070001F000380318031803F00000000000000FD
:1040800000000000000000007F804C804C804C80CD
:104090000C000C000C000C003F00000000000000B1
:1040A00000000000000000007BC0318031803180C2
:1040B00031803180318031801F000000000000001D
:1040C00000000000000000007BC0318031801B0038
:1040D0001B001B000A000E000E0000000000000084
:1040E0000000000000000000FBE060C064C06EC083
:1040F0006EC02A803B803B803180000000000000C1
:1041000000000000000000007BC031801B000E009A
:104110000E000E001B0031807BC00000000000007C
:10412000000000000000000079E030C019800F009E
:1041300006000600060006001F80000000000000C8
:1041400000000000000000003F80218023000600E6
:1041500004000C00188030803F8000000000000048
:1041600000000000000007800600060006000600B0
:104170000600060006000600060006000780000094
:104180000000000030003000180018000C000C0087
:104190000600030003000180018000C000C0000091
:1041A0000000000000001E000600060006000600D9
:1041B0000600060006000600060006001E000000BD
:1041C0000000000004000A000A0011002080208086
:1041D00000000000000000000000000000000000DF
:1041E00000000000000000000000000000000000CF
:1041F00000000000000000000000000000000000BF
:104200000000FFE0080004000200000000000000C1
:10421000000000000000000000000000000000009E
:104220000000000000000000000000001F000180EE
:1042300001801F80318033801DC00000000000001D
:1042400000000000000070003000300037003980AE
:1042500030C030C030C0398077000000000000005E
:104260000000000000000000000000001E803180FF
:1042700060806000608031801F000000000000004E
:104280000000000000000380018001801D80338059
:1042900061806180618033801DC0000000000000EB
:1042A0000000000000000000000000001F0031803E
:1042B00060C07FC0600030C01F80000000000000B0
:1042C00000000000000007E00C000C003F800C0024
:1042D0000C000C000C000C003F80000000000000EF
:1042E0000000000000000000000000001DC033803E
:1042F00061806180618033801D80018001801F00AA
:1043000000000000000070003000300037003980ED
:1043100031803180318031807BC00000000000009E
:104320000000000000000600060000001E0006005D
:1043300006000600060006003FC000000000000066
:104340000000000000000600060000003F0003001F
:1043500003000300030003000300030003003E000A
:104360000000000000007000300030003780360090
:104370003C003C003600330077C000000000000025
:104380000000000000001E000600060006000600F7
:1043900006000600060006003FC000000000000006
:1043A0000000000000000000000000007F8036C018
:1043B00036C036C036C036C076E0000000000000CF
:1043C00000000000000000000000000077003980BD
:1043D00031803180318031807BC0000000000000DE
:1043E0000000000000000000000000001F003180FD
:1043F00060C060C060C031801F000000000000008D
:10440000000000000000000000000000770039807C
:1044100030C030C030C039803700300030007C0000
:104420000000000000000000000000001DC03380FC
:1044300061806180618033801D800180018007C0C0
:104440000000000000000000000000007B801CC095
:1044500018001800180018007F000000000000007D
:104460000000000000000000000000001F803180FC
:104470003C001F00038031803F000000000000006E
:104480000000000000001800180018007F0018004D
:1044900018001800180018800F000000000000002D
:1044A0000000000000000000000000007380318068
:1044B00031803180318033801DC000000000000059
:1044C0000000000000000000000000007BC0318000
:1044D00031801B001B000E000E00000000000000D9
:1044E000000000000000000000000000F1E060C0DB
:1044F00064C06EC03B803B80318000000000000043
:104500000000000000000000000000007BC01B0055
:104510000E000E000E001B007BC00000000000001B
:1045200000000000000000000000000079E030C042
:10453000198019800B000F00060006000C003E00D9
:104540000000000000000000000000003F8021800B
:1045500003000E00180030803F80000000000000C3
:1045600000000000000006000C000C000C000C0015
:104570000C0018000C000C000C000C0006000000E1
:10458000000000000000060006000600060006000D
:1045900006000600060006000600060006000000F1
:1045A0000000000000000C000600060006000600E7
:1045B0000600030006000600060006000C000000CE
:1045C00000000000000000000000000000001800D3
:1045D0002480030000000000000000000000000034
:1045E00000000000C4E300000000000000001DC047
:1045F0001D803BFF3B073F777E76F870FBFEFBFE9E
:104600003F773F773E73387038703BE00000000022
:10461000000000000000000000000000000000009A
:10462000000000000000000000000000000000008A
:10463000000000000000000000000000000000007A
:10464000000000000000000000000000000000006A
:10465000000000000000000000000000000000005A
:10466000000000000000000000000000000000004A
:10467000000000000000000000000000000000003A
:1046800000000000000000000000BAC300000000AD
:1046900000000000300073FF700FFE1E7E3C6E387D
:1046A000EE30EFFFFC307C3038303E307E30E03092
:1046B000C1F0000000000000000000000000000049
:1046C00000000000000000000000000000000000EA
:1046D00000000000000000000000000000000000DA
:1046E00000000000000000000000000000000000CA
:1046F00000000000000000000000000000000000BA
:1047000000000000000000000000000000000000A9
:104710000000000000000000000000000000000099
:104720000000000000000000000000000000000089
:10473000CAF70000000000000000300E300E3FEE0F
:1047400030EEFCFF76CE77FE7BFEFFFEF3DEF3CE8F
:1047500037EE3E6E3C0E303E0000000000000000D0
:104760000000000000000000000000000000000049
:104770000000000000000000000000000000000039
:104780000000000000000000000000000000000029
:104790000000000000000000000000000000000019
:1047A0000000000000000000000000000000000009
:1047B00000000000000000000000000000000000F9
:1047C00000000000000000000000000000000000E9
:1047D000000000000000DDAE00000000000000004E
:1047E0000670FFFF3E7038007FFFE000FFFC3B8C4F
:1047F00039CCFFFF739C71DC7FFF001C01F80000C7
:1048000000000000000000000000000000000000A8
:104810000000000000000000000000000000000098
:104820000000000000000000000000000000000088
:104830000000000000000000000000000000000078
:104840000000000000000000000000000000000068
:104850000000000000000000000000000000000058
:104860000000000000000000000000000000000048
:10487000000000000000000000000000C5C90000AA
:10488000000000000000E01FFFF03E000E1FCFFB05
:10489000FFF83FFF0FFF7FD87FDC6FCEEDFFFDF706
:1048A000F9C000000000000000000000000000004F
:1048B00000000000000000000000000000000000F8
:1048C00000000000000000000000000000000000E8
:1048D00000000000000000000000000000000000D8
:1048E00000000000000000000000000000000000C8
:1048F00000000000000000000000000000000000B8
:1049000000000000000000000000000000000000A7
:104910000000000000000000000000000000000097
:104920000000610000000000000000000000000026
:10493000000000003E00670007800F807F80E3805A
:10494000E780E7807F80000000000000000000009A
:104950000000000000000000000000000000000057
:104960000000000000000000000000000000000047
:104970000000000000000000000000000000000037
:104980000000000000000000000000000000000027
:104990000000000000000000000000000000000017
:1049A0000000000000000000000000000000000007
:1049B00000000000000000000000000000000000F7
:1049C0000000000000000000620000000000000085
:1049D000000070007000700070007F007B8071C06C
:1049E00071C071C071C071C07B807F000000000089
:1049F00000000000000000000000000000000000B7
:104A000000000000000000000000000000000000A6
:104A10000000000000000000000000000000000096
:104A20000000000000000000000000000000000086
:104A30000000000000000000000000000000000076
:104A40000000000000000000000000000000000066
:104A50000000000000000000000000000000000056
:104A600000000000000000000000000000006300E3
:104A70000000000000000000000000000000000036
:104A80003F007300F000E000E000E000F000730081
:104A90003F000000000000000000000000000000D7
:104AA0000000000000000000000000000000000006
:104AB00000000000000000000000000000000000F6
:104AC00000000000000000000000000000000000E6
:104AD00000000000000000000000000000000000D6
:104AE00000000000000000000000000000000000C6
:104AF00000000000000000000000000000000000B6
:104B000000000000000000000000000000000000A5
:104B10000000000041000000000000000000000054
:104B20000E001F001F001F003B803B8071807FC074
:104B300071C0E0E0E0E0E0E0000000000000000004
:104B40000000000000000000000000000000000065
:104B50000000000000000000000000000000000055
:104B60000000000000000000000000000000000045
:104B70000000000000000000000000000000000035
:104B80000000000000000000000000000000000025
:104B90000000000000000000000000000000000015
:104BA0000000000000000000000000000000000005
:104BB00000000000000000000000000000000000F5
:104BC00000000000000000000000000000000000E5
:104BD00000000000000000000000000000000000D5
:104BE000000000000700070007000700070007009B
:104BF000070002000200000000000700070000009C
:104C000000000000000000000000000000001CE0A8
:104C10001CE01CE0084008400840000000000000C4
:104C20000000000000000000000000000000000084
:104C300000000CC00CC00CC00CC00CC03FF03FF01A
:104C40000CC00CC03FF03FF00CC00CC00CC00CC03E
:104C50000CC000000000000000000300030007E09B
:104C60000FE0186018001F000FC000E01860186007
:104C70001FC01F80030003000300000000000000AD
:104C8000000000001C002200220022001C6001E045
:104C90000F803C0031C002200220022001C0000031
:104CA0000000000000000000000000000000000004
:104CB00003E00FE00C000C0006000F301FF019E0BD
:104CC00018C01FF007B00000000000000000000046
:104CD0000000000000000380038003800100010049
:104CE00001000000000000000000000000000000C3
:104CF00000000000000000000000000000C000C034
:104D00000180018001800300030003000300030011
:104D1000030001800180018000C000C0000000008D
:104D2000000000000C000C00060006000600030056
:104D30000300030003000300030006000600060052
:104D40000C000C0000000000000000000300030045
:104D500003001B601FE0078007800FC00CC000002D
:104D60000000000000000000000000000000000043
:104D70000000000000000000030003000300030027
:104D80003FF03FF0030003000300030000000000B9
:104D90000000000000000000000000000000000013
:104DA0000000000000000000000000000000000003
:104DB000038003000300060006000400000000005A
:104DC00000000000000000000000000000000000E3
:104DD0003FE03FE000000000000000000000000095
:104DE00000000000000000000000000000000000C3
:104DF00000000000000000000000000000000000B3
:104E00000380038003800000000000000000000019
:104E100000000060006000C000C000C00180018090
:104E200003000300060006000C000C000C00180034
:104E30001800000000000000000000000F801FC0EC
:104E400018C030603060306030603060306030609A
:104E500018C01FC00F80000000000000000000000C
:104E60000000000003001F001F00030003000300F8
:104E7000030003000300030003001FE01FE0000025
:104E80000000000000000000000000000F801FC0B4
:104E900038E03060006000C00180030006000C00B4
:104EA00018003FE03FE000000000000000000000AC
:104EB000000000000F803FC030E0006000E007C04D
:104EC00007C000E00060006060E07FC03F8000003D
:104ED00000000000000000000000000001C003C04E
:104EE00003C006C00CC00CC018C030C03FE03FE09B
:104EF00000C003E003E0000000000000000000002C
:104F0000000000001FC01FC0180018001F801FC035
:104F100018E000600060006030E03FC01F800000CB
:104F200000000000000000000000000003E00FE0AF
:104F30001E001800380037803FC038E03060306015
:104F400018E01FC007800000000000000000000003
:104F5000000000003FE03FE03060006000C000C0A3
:104F600000C00180018001800300030003000000F5
:104F70000000000000000000000000000F801FC0C3
:104F800038E0306038E01FC01FC038E0306030606B
:104F900038E01FC00F80000000000000000000008B
:104FA000000000000F001FC038C03060306038E0E3
:104FB0001FE00F6000E000C003C03F803E00000023
:104FC00000000000000000000000000000000000E1
:104FD0000000000003800380038000000000000048
:104FE0000380038003800000000000000000000038
:104FF00000000000000000000000000001C001C02F
:1050000001C000000000000003800300060006004D
:10501000040000000000000000000000000000008C
:10502000003000F003C007001C0078001C000700DF
:1050300003C000F00030000000000000000000008D
:105040000000000000000000000000007FF07FF082
:10505000000000007FF07FF0000000000000000072
:105060000000000000000000000000000000000040
:1050700030003C000F00038000E0007800E0038077
:105080000F003C00300000000000000000000000A5
:105090000000000000000F801FC018601860006052
:1050A00001C00380030000000000070007000000AB
:1050B00000000000000000000000000003800C80E1
:1050C00008401040104011C012401240124011C060
:1050D00010000800084007800000000000000000E9
:1050E0000000000000001F801F80038006C006C073
:1050F0000CC00C601FE01FE030307878787800003A
:1051000000000000000000000000000000003F80E0
:105110003FC01860186018E01FC01FE018701830FA
:1051200018303FF03FE000000000000000000000E9
:1051300000000000000007B00FF01C703830300095
:1051400030003000300038301C700FE007C0000025
:1051500000000000000000000000000000007F8050
:105160007FC030E030703030303030303030307030
:1051700030E07FC07F8000000000000000000000E1
:105180000000000000003FF03FF018301830198098
:105190001F801F801980183018303FF03FF000004A
:1051A00000000000000000000000000000003FF0D0
:1051B0003FF01830183019801F801F8019801800A8
:1051C00018003F003F000000000000000000000049
:1051D00000000000000007B01FF0187030303000F1
:1051E000300031F831F8303018301FF007C00000BF
:1051F00000000000000000000000000000003CF083
:105200003CF01860186018601FE01FE0186018601C
:1052100018603CF03CF000000000000000000000BE
:105220000000000000001FE01FE003000300030077
:10523000030003000300030003001FE01FE0000061
:10524000000000000000000000000000000003F863
:1052500003F8006000600060006030603060306023
:1052600030E03FC00F8000000000000000000000A0
:105270000000000000003EF83EF818E019801B0016
:105280001F001D8018C018C018603E783E3800000E
:1052900000000000000000000000000000003F00CF
:1052A0003F000C000C000C000C000C000C300C300B
:1052B0000C303FF03FF00000000000000000000054
:1052C0000000000000007878787838703CF034B046
:1052D00037B037B03330333030307CF87CF80000F2
:1052E000000000000000000000000000000039F095
:1052F0003DF01C601E601E601B601B6019E019E021
:1053000018E03EE03E6000000000000000000000E9
:1053100000000000000007800FC01CE03870303033
:1053200030303030303038701CE00FC00780000063
:1053300000000000000000000000000000003FC06E
:105340003FE018701830183018701FE01FC01800A8
:1053500018003F003F0000000000000000000000B7
:1053600000000000000007800FC01CE038703030E3
:1053700030303030303038701CE00FC0078007B05C
:105380000FF00CE0000000000000000000003FC033
:105390003FE01870183018701FE01FC018E0186048
:1053A00018703E383E1800000000000000000000A9
:1053B0000000000000000FB01FF0387030303800DF
:1053C0001F8007E00070303038703FE037C00000C9
:1053D00000000000000000000000000000003FF09E
:1053E0003FF0333033303330030003000300030059
:1053F00003000FC00FC0000000000000000000000C
:105400000000000000003CF03CF0186018601860DC
:1054100018601860186018601CE00FC0078000005A
:10542000000000000000000000000000000078F014
:1054300078F03060306018C018C00D800D800D808D
:105440000700070007000000000000000000000047
:105450000000000000007C7C7C7C3018339833987E
:10546000339836D816D01C701C701C701830000091
:10547000000000000000000000000000000078F0C4
:1054800078F0306018C00D80070007000D8018C04C
:10549000306078F078F000000000000000000000AC
:1054A0000000000000003CF03CF018600CC00780D9
:1054B000078003000300030003000FC00FC00000BB
:1054C00000000000000000000000000000001FE0DD
:1054D0001FE0186018C001800300030006000C6084
:1054E00018601FE01FE00000000000000000000046
:1054F0000000000003C003C003000300030003001A
:105500000300030003000300030003000300030083
:1055100003C003C0000000000000180018000C00C9
:105520000C000C000600060003000300018001804F
:1055300000C000C000C0006000600000000000006B
:10554000000000000F000F00030003000300030031
:105550000300030003000300030003000300030033
:105560000F000F0000000000000000000200070014
:105570000D8018C0306020200000000000000000F6
:10558000000000000000000000000000000000001B
:10559000000000000000000000000000000000000B
:1055A00000000000000000000000000000000000FB
:1055B000000000000000FFFCFFFC000004000300EE
:1055C000008000000000000000000000000000005B
:1055D00000000000000000000000000000000000CB
:1055E0000000000000000000000000000FC01FE0ED
:1055F00000600FE01FE0386030E03FF01F700000F7
:1056000000000000000000000000000070007000BA
:105610003000300037803FE038603030303030309C
:1056200038607FE07780000000000000000000008C
:1056300000000000000000000000000007B01FF0A4
:10564000183030303000300038301FF00FC000000C
:10565000000000000000000000000000007000706A
:105660000030003007B01FF018703030303030306C
:1056700038701FF807B800000000000000000000AC
:1056800000000000000000000000000007801FE094
:1056900018603FF03FF0300018301FF007C00000E6
:1056A00000000000000000000000000003F007F010
:1056B000060006001FE01FE00600060006000600C8
:1056C00006001FE01FE000000000000000000000D6
:1056D00000000000000000000000000007B81FF8F4
:1056E000187030303030303018701FF007B0003094
:1056F00000700FE00FC0000000000000380038000C
:10570000180018001BC01FE01C60186018601860AB
:1057100018603CF03CF000000000000000000000B9
:105720000000000003000300000000001F001F0035
:10573000030003000300030003001FE01FE000005C
:105740000000000000000000000000000300030053
:10575000000000001FC01FC000C000C000C000C08B
:1057600000C000C000C000C001C03F803F0000007A
:105770000000000038003800180018001BE01BE093
:105780001B001E001E001B00198039F039F00000BC
:105790000000000000000000000000001F001F00CB
:1057A00003000300030003000300030003000300E1
:1057B00003001FE01FE000000000000000000000E8
:1057C0000000000000000000000000007EE07FF00C
:1057D000333033303330333033307BB87BB8000074
:1057E00000000000000000000000000000000000B9
:1057F000000000003BC03FE01C60186018601860AB
:1058000018603CF03CF000000000000000000000C8
:1058100000000000000000000000000007801FE002
:10582000186030303030303018601FE007800000E2
:105830000000000000000000000000000000000068
:105840000000000077807FE038603030303030304A
:1058500038603FE03780300030007C007C00000082
:1058600000000000000000000000000007B81FF862
:10587000187030303030303018701FF007B0003002
:10588000003000F800F800000000000000000000F8
:10589000000000003CE03DF00F300E000C000C005A
:1058A0000C003FC03FC000000000000000000000EE
:1058B00000000000000000000000000007E01FE002
:1058C00018601E000FC001E018601FE01F8000007C
:1058D00000000000000000000000000000000C00BC
:1058E0000C000C003FE03FE00C000C000C000C0032
:1058F0000C300FF007C000000000000000000000A6
:1059000000000000000000000000000038E038E067
:10591000186018601860186018E01FF00F70000021
:105920000000000000000000000000000000000077
:105930000000000078F078F0306018C018C00D80CA
:105940000D800700070000000000000000000000BC
:1059500000000000000000000000000078F078F077
:105960003260326037E01DC01DC018C018C0000092
:105970000000000000000000000000000000000027
:10598000000000003CF03CF00CC0078003000780E2
:105990000CC03CF03CF000000000000000000000E3
:1059A00000000000000000000000000078F078F027
:1059B000306018C018C00D800F8007000600060078
:1059C0000C007F007F0000000000000000000000CD
:1059D000000000001FE01FE018C001800300060067
:1059E0000C601FE01FE0000000000000000000004D
:1059F0000000000001C003C0030003000300030017
:105A0000030007000E00070003000300030003006B
:105A100003C001C0000000000000000003000300FC
:105A2000030003000300030003000300030003005E
:105A30000300030003000300030003000000000054
:105A4000000000001C001E00060006000600060004
:105A50000600070003800700060006000600060097
:105A60001E001C00000000000000000000000000FC
:105A70000000000000000E003F3033F001E00000A5
:105A80000000000000000000000000000000000016
:105A90000000C4E30000000000000000000000005F
:105AA00000000000000000000000000000000000F6
:105AB00001C1C00001E3E00003E3C00003C78000B0
:105AC00003C7FFFF078FFFFF078F000F0F1E001E8A
:105AD0000F3C1E1E1F3C1E3E1F181E3C3F001E1C7E
